{
  "contractName": "EtherlessSmart",
  "abi": [
    {
      "anonymous": false,
      "inputs": [
        {
          "indexed": false,
          "internalType": "string",
          "name": "result",
          "type": "string"
        },
        {
          "indexed": true,
          "internalType": "uint256",
          "name": "id",
          "type": "uint256"
        }
      ],
      "name": "response",
      "type": "event"
    },
    {
      "anonymous": false,
      "inputs": [
        {
          "indexed": false,
          "internalType": "string",
          "name": "funcname",
          "type": "string"
        },
        {
          "indexed": false,
          "internalType": "string",
          "name": "param",
          "type": "string"
        },
        {
          "indexed": true,
          "internalType": "uint256",
          "name": "id",
          "type": "uint256"
        }
      ],
      "name": "runRequest",
      "type": "event"
    },
    {
      "inputs": [
        {
          "internalType": "contract EtherlessStorage",
          "name": "_functions",
          "type": "address"
        }
      ],
      "name": "initialize",
      "outputs": [],
      "stateMutability": "nonpayable",
      "type": "function"
    },
    {
      "inputs": [
        {
          "internalType": "string",
          "name": "name",
          "type": "string"
        },
        {
          "internalType": "string",
          "name": "signature",
          "type": "string"
        },
        {
          "internalType": "uint256",
          "name": "price",
          "type": "uint256"
        },
        {
          "internalType": "string",
          "name": "description",
          "type": "string"
        }
      ],
      "name": "addFunction",
      "outputs": [],
      "stateMutability": "payable",
      "type": "function"
    },
    {
      "inputs": [
        {
          "internalType": "string",
          "name": "funcName",
          "type": "string"
        },
        {
          "internalType": "string",
          "name": "param",
          "type": "string"
        }
      ],
      "name": "runFunction",
      "outputs": [],
      "stateMutability": "payable",
      "type": "function"
    },
    {
      "inputs": [
        {
          "internalType": "string",
          "name": "result",
          "type": "string"
        },
        {
          "internalType": "uint256",
          "name": "id",
          "type": "uint256"
        }
      ],
      "name": "resultFunction",
      "outputs": [],
      "stateMutability": "nonpayable",
      "type": "function"
    },
    {
      "inputs": [
        {
          "internalType": "string",
          "name": "result",
          "type": "string"
        },
        {
          "internalType": "uint256",
          "name": "id",
          "type": "uint256"
        }
      ],
      "name": "errorFunction",
      "outputs": [],
      "stateMutability": "nonpayable",
      "type": "function"
    },
    {
      "inputs": [
        {
          "internalType": "string",
          "name": "_funcName",
          "type": "string"
        }
      ],
      "name": "getCost",
      "outputs": [
        {
          "internalType": "uint256",
          "name": "",
          "type": "uint256"
        }
      ],
      "stateMutability": "view",
      "type": "function"
    },
    {
      "inputs": [
        {
          "internalType": "string",
          "name": "_funcName",
          "type": "string"
        }
      ],
      "name": "getInfo",
      "outputs": [
        {
          "internalType": "string",
          "name": "",
          "type": "string"
        }
      ],
      "stateMutability": "view",
      "type": "function"
    },
    {
      "inputs": [],
      "name": "getFuncList",
      "outputs": [
        {
          "internalType": "string",
          "name": "",
          "type": "string"
        }
      ],
      "stateMutability": "view",
      "type": "function"
    }
  ],
  "bytecode": "0x608060405234801561001057600080fd5b50612561806100206000396000f3fe60806040526004361061007b5760003560e01c80638ed2cfcd1161004e5780638ed2cfcd146104755780639ca3c29c14610668578063a402169414610744578063c4d66de8146108165761007b565b8063086751f7146100805780630ecbfcea146101d257806351a26673146102625780637ee005ab14610334575b600080fd5b6101d06004803603604081101561009657600080fd5b81019080803590602001906401000000008111156100b357600080fd5b8201836020820111156100c557600080fd5b803590602001918460018302840111640100000000831117156100e757600080fd5b91908080601f016020809104026020016040519081016040528093929190818152602001838380828437600081840152601f19601f8201169050808301925050505050505091929192908035906020019064010000000081111561014a57600080fd5b82018360208201111561015c57600080fd5b8035906020019184600183028401116401000000008311171561017e57600080fd5b91908080601f016020809104026020016040519081016040528093929190818152602001838380828437600081840152601f19601f820116905080830192505050505050509192919290505050610867565b005b3480156101de57600080fd5b506101e7610e8d565b6040518080602001828103825283818151815260200191508051906020019080838360005b8381101561022757808201518184015260208101905061020c565b50505050905090810190601f1680156102545780820380516001836020036101000a031916815260200191505b509250505060405180910390f35b34801561026e57600080fd5b506103326004803603604081101561028557600080fd5b81019080803590602001906401000000008111156102a257600080fd5b8201836020820111156102b457600080fd5b803590602001918460018302840111640100000000831117156102d657600080fd5b91908080601f016020809104026020016040519081016040528093929190818152602001838380828437600081840152601f19601f82011690508083019250505050505050919291929080359060200190929190505050610ff5565b005b34801561034057600080fd5b506103fa6004803603602081101561035757600080fd5b810190808035906020019064010000000081111561037457600080fd5b82018360208201111561038657600080fd5b803590602001918460018302840111640100000000831117156103a857600080fd5b91908080601f016020809104026020016040519081016040528093929190818152602001838380828437600081840152601f19601f820116905080830192505050505050509192919290505050611204565b6040518080602001828103825283818151815260200191508051906020019080838360005b8381101561043a57808201518184015260208101905061041f565b50505050905090810190601f1680156104675780820380516001836020036101000a031916815260200191505b509250505060405180910390f35b6106666004803603608081101561048b57600080fd5b81019080803590602001906401000000008111156104a857600080fd5b8201836020820111156104ba57600080fd5b803590602001918460018302840111640100000000831117156104dc57600080fd5b91908080601f016020809104026020016040519081016040528093929190818152602001838380828437600081840152601f19601f8201169050808301925050505050505091929192908035906020019064010000000081111561053f57600080fd5b82018360208201111561055157600080fd5b8035906020019184600183028401116401000000008311171561057357600080fd5b91908080601f016020809104026020016040519081016040528093929190818152602001838380828437600081840152601f19601f82011690508083019250505050505050919291929080359060200190929190803590602001906401000000008111156105e057600080fd5b8201836020820111156105f257600080fd5b8035906020019184600183028401116401000000008311171561061457600080fd5b91908080601f016020809104026020016040519081016040528093929190818152602001838380828437600081840152601f19601f820116905080830192505050505050509192919290505050611546565b005b34801561067457600080fd5b5061072e6004803603602081101561068b57600080fd5b81019080803590602001906401000000008111156106a857600080fd5b8201836020820111156106ba57600080fd5b803590602001918460018302840111640100000000831117156106dc57600080fd5b91908080601f016020809104026020016040519081016040528093929190818152602001838380828437600081840152601f19601f8201169050808301925050505050505091929192905050506118c3565b6040518082815260200191505060405180910390f35b34801561075057600080fd5b506108146004803603604081101561076757600080fd5b810190808035906020019064010000000081111561078457600080fd5b82018360208201111561079657600080fd5b803590602001918460018302840111640100000000831117156107b857600080fd5b91908080601f016020809104026020016040519081016040528093929190818152602001838380828437600081840152601f19601f820116905080830192505050505050509192919290803590602001909291905050506119df565b005b34801561082257600080fd5b506108656004803603602081101561083957600080fd5b81019080803573ffffffffffffffffffffffffffffffffffffffff169060200190929190505050611bee565b005b603660009054906101000a900473ffffffffffffffffffffffffffffffffffffffff1673ffffffffffffffffffffffffffffffffffffffff166384ecd685836040518263ffffffff1660e01b81526004018080602001828103825283818151815260200191508051906020019080838360005b838110156108f55780820151818401526020810190506108da565b50505050905090810190601f1680156109225780820380516001836020036101000a031916815260200191505b509250505060206040518083038186803b15801561093f57600080fd5b505afa158015610953573d6000803e3d6000fd5b505050506040513d602081101561096957600080fd5b81019080805190602001909291905050506109cf576040517f08c379a00000000000000000000000000000000000000000000000000000000081526004018080602001828103825260338152602001806124f96033913960400191505060405180910390fd5b6000603660009054906101000a900473ffffffffffffffffffffffffffffffffffffffff1673ffffffffffffffffffffffffffffffffffffffff1663d2d06d62846040518263ffffffff1660e01b81526004018080602001828103825283818151815260200191508051906020019080838360005b83811015610a5f578082015181840152602081019050610a44565b50505050905090810190601f168015610a8c5780820380516001836020036101000a031916815260200191505b509250505060206040518083038186803b158015610aa957600080fd5b505afa158015610abd573d6000803e3d6000fd5b505050506040513d6020811015610ad357600080fd5b810190808051906020019092919050505090506000603660009054906101000a900473ffffffffffffffffffffffffffffffffffffffff1673ffffffffffffffffffffffffffffffffffffffff16631f7bcf11856040518263ffffffff1660e01b81526004018080602001828103825283818151815260200191508051906020019080838360005b83811015610b76578082015181840152602081019050610b5b565b50505050905090810190601f168015610ba35780820380516001836020036101000a031916815260200191505b509250505060206040518083038186803b158015610bc057600080fd5b505afa158015610bd4573d6000803e3d6000fd5b505050506040513d6020811015610bea57600080fd5b8101908080519060200190929190505050905081341015610c73576040517f08c379a000000000000000000000000000000000000000000000000000000000815260040180806020018281038252601d8152602001807f496e73756666696369656e7420616d6f756e742073656e7421203a272800000081525060200191505060405180910390fd5b610c7b611de9565b50603760009054906101000a900473ffffffffffffffffffffffffffffffffffffffff1673ffffffffffffffffffffffffffffffffffffffff166320e8c5653383856035546040518563ffffffff1660e01b8152600401808573ffffffffffffffffffffffffffffffffffffffff1673ffffffffffffffffffffffffffffffffffffffff1681526020018473ffffffffffffffffffffffffffffffffffffffff1673ffffffffffffffffffffffffffffffffffffffff168152602001838152602001828152602001945050505050600060405180830381600087803b158015610d6357600080fd5b505af1158015610d77573d6000803e3d6000fd5b505050506035547f7ef872871460aa4a20c88ad733e51a4ef38ab384f289ec5953b389964b05ac678585604051808060200180602001838103835285818151815260200191508051906020019080838360005b83811015610de5578082015181840152602081019050610dca565b50505050905090810190601f168015610e125780820380516001836020036101000a031916815260200191505b50838103825284818151815260200191508051906020019080838360005b83811015610e4b578082015181840152602081019050610e30565b50505050905090810190601f168015610e785780820380516001836020036101000a031916815260200191505b5094505050505060405180910390a250505050565b6060603660009054906101000a900473ffffffffffffffffffffffffffffffffffffffff1673ffffffffffffffffffffffffffffffffffffffff1663942b765a6040518163ffffffff1660e01b815260040160006040518083038186803b158015610ef757600080fd5b505afa158015610f0b573d6000803e3d6000fd5b505050506040513d6000823e3d601f19601f820116820180604052506020811015610f3557600080fd5b8101908080516040519392919084640100000000821115610f5557600080fd5b83820191506020820185811115610f6b57600080fd5b8251866001820283011164010000000082111715610f8857600080fd5b8083526020830192505050908051906020019080838360005b83811015610fbc578082015181840152602081019050610fa1565b50505050905090810190601f168015610fe95780820380516001836020036101000a031916815260200191505b50604052505050905090565b603760009054906101000a900473ffffffffffffffffffffffffffffffffffffffff1673ffffffffffffffffffffffffffffffffffffffff1663f3fef3a3603760009054906101000a900473ffffffffffffffffffffffffffffffffffffffff1673ffffffffffffffffffffffffffffffffffffffff1663302df083846040518263ffffffff1660e01b81526004018082815260200191505060206040518083038186803b1580156110a657600080fd5b505afa1580156110ba573d6000803e3d6000fd5b505050506040513d60208110156110d057600080fd5b8101908080519060200190929190505050836040518363ffffffff1660e01b8152600401808373ffffffffffffffffffffffffffffffffffffffff1673ffffffffffffffffffffffffffffffffffffffff16815260200182815260200192505050600060405180830381600087803b15801561114b57600080fd5b505af115801561115f573d6000803e3d6000fd5b50505050807fffda55e4304ec6259e8497cd0ba9fa89ccde91cf30fa16cdb7b79a22b92537a8836040518080602001828103825283818151815260200191508051906020019080838360005b838110156111c65780820151818401526020810190506111ab565b50505050905090810190601f1680156111f35780820380516001836020036101000a031916815260200191505b509250505060405180910390a25050565b6060603660009054906101000a900473ffffffffffffffffffffffffffffffffffffffff1673ffffffffffffffffffffffffffffffffffffffff166384ecd685836040518263ffffffff1660e01b81526004018080602001828103825283818151815260200191508051906020019080838360005b83811015611294578082015181840152602081019050611279565b50505050905090810190601f1680156112c15780820380516001836020036101000a031916815260200191505b509250505060206040518083038186803b1580156112de57600080fd5b505afa1580156112f2573d6000803e3d6000fd5b505050506040513d602081101561130857600080fd5b810190808051906020019092919050505061136e576040517f08c379a00000000000000000000000000000000000000000000000000000000081526004018080602001828103825260338152602001806124f96033913960400191505060405180910390fd5b603660009054906101000a900473ffffffffffffffffffffffffffffffffffffffff1673ffffffffffffffffffffffffffffffffffffffff166383329ed2836040518263ffffffff1660e01b81526004018080602001828103825283818151815260200191508051906020019080838360005b838110156113fc5780820151818401526020810190506113e1565b50505050905090810190601f1680156114295780820380516001836020036101000a031916815260200191505b509250505060006040518083038186803b15801561144657600080fd5b505afa15801561145a573d6000803e3d6000fd5b505050506040513d6000823e3d601f19601f82011682018060405250602081101561148457600080fd5b81019080805160405193929190846401000000008211156114a457600080fd5b838201915060208201858111156114ba57600080fd5b82518660018202830111640100000000821117156114d757600080fd5b8083526020830192505050908051906020019080838360005b8381101561150b5780820151818401526020810190506114f0565b50505050905090810190601f1680156115385780820380516001836020036101000a031916815260200191505b506040525050509050919050565b60001515603660009054906101000a900473ffffffffffffffffffffffffffffffffffffffff1673ffffffffffffffffffffffffffffffffffffffff166384ecd685866040518263ffffffff1660e01b81526004018080602001828103825283818151815260200191508051906020019080838360005b838110156115d85780820151818401526020810190506115bd565b50505050905090810190601f1680156116055780820380516001836020036101000a031916815260200191505b509250505060206040518083038186803b15801561162257600080fd5b505afa158015611636573d6000803e3d6000fd5b505050506040513d602081101561164c57600080fd5b81019080805190602001909291905050501515146116b5576040517f08c379a000000000000000000000000000000000000000000000000000000000815260040180806020018281038252602c81526020018061249f602c913960400191505060405180910390fd5b603660009054906101000a900473ffffffffffffffffffffffffffffffffffffffff1673ffffffffffffffffffffffffffffffffffffffff16633912033985858533866040518663ffffffff1660e01b81526004018080602001806020018681526020018573ffffffffffffffffffffffffffffffffffffffff1673ffffffffffffffffffffffffffffffffffffffff16815260200180602001848103845289818151815260200191508051906020019080838360005b8381101561178757808201518184015260208101905061176c565b50505050905090810190601f1680156117b45780820380516001836020036101000a031916815260200191505b50848103835288818151815260200191508051906020019080838360005b838110156117ed5780820151818401526020810190506117d2565b50505050905090810190601f16801561181a5780820380516001836020036101000a031916815260200191505b50848103825285818151815260200191508051906020019080838360005b83811015611853578082015181840152602081019050611838565b50505050905090810190601f1680156118805780820380516001836020036101000a031916815260200191505b5098505050505050505050600060405180830381600087803b1580156118a557600080fd5b505af11580156118b9573d6000803e3d6000fd5b5050505050505050565b6000603660009054906101000a900473ffffffffffffffffffffffffffffffffffffffff1673ffffffffffffffffffffffffffffffffffffffff1663d2d06d62836040518263ffffffff1660e01b81526004018080602001828103825283818151815260200191508051906020019080838360005b83811015611953578082015181840152602081019050611938565b50505050905090810190601f1680156119805780820380516001836020036101000a031916815260200191505b509250505060206040518083038186803b15801561199d57600080fd5b505afa1580156119b1573d6000803e3d6000fd5b505050506040513d60208110156119c757600080fd5b81019080805190602001909291905050509050919050565b603760009054906101000a900473ffffffffffffffffffffffffffffffffffffffff1673ffffffffffffffffffffffffffffffffffffffff1663f3fef3a3603760009054906101000a900473ffffffffffffffffffffffffffffffffffffffff1673ffffffffffffffffffffffffffffffffffffffff1663b971302a846040518263ffffffff1660e01b81526004018082815260200191505060206040518083038186803b158015611a9057600080fd5b505afa158015611aa4573d6000803e3d6000fd5b505050506040513d6020811015611aba57600080fd5b8101908080519060200190929190505050836040518363ffffffff1660e01b8152600401808373ffffffffffffffffffffffffffffffffffffffff1673ffffffffffffffffffffffffffffffffffffffff16815260200182815260200192505050600060405180830381600087803b158015611b3557600080fd5b505af1158015611b49573d6000803e3d6000fd5b50505050807fffda55e4304ec6259e8497cd0ba9fa89ccde91cf30fa16cdb7b79a22b92537a8836040518080602001828103825283818151815260200191508051906020019080838360005b83811015611bb0578082015181840152602081019050611b95565b50505050905090810190601f168015611bdd5780820380516001836020036101000a031916815260200191505b509250505060405180910390a25050565b600060019054906101000a900460ff1680611c0d5750611c0c611dff565b5b80611c2457506000809054906101000a900460ff16155b611c79576040517f08c379a000000000000000000000000000000000000000000000000000000000815260040180806020018281038252602e8152602001806124cb602e913960400191505060405180910390fd5b60008060019054906101000a900460ff161590508015611cc9576001600060016101000a81548160ff02191690831515021790555060016000806101000a81548160ff0219169083151502179055505b6000603481905550600060358190555033603360006101000a81548173ffffffffffffffffffffffffffffffffffffffff021916908373ffffffffffffffffffffffffffffffffffffffff16021790555081603660006101000a81548173ffffffffffffffffffffffffffffffffffffffff021916908373ffffffffffffffffffffffffffffffffffffffff160217905550604051611d6790611e16565b604051809103906000f080158015611d83573d6000803e3d6000fd5b50603760006101000a81548173ffffffffffffffffffffffffffffffffffffffff021916908373ffffffffffffffffffffffffffffffffffffffff1602179055508015611de55760008060016101000a81548160ff0219169083151502179055505b5050565b6000600160355401603581905550603554905090565b6000803090506000813b9050600081149250505090565b61067b80611e248339019056fe608060405234801561001057600080fd5b5061065b806100206000396000f3fe60806040526004361061004a5760003560e01c806320e8c5651461004f578063302df083146100c75780637cf850f214610142578063b971302a14610191578063f3fef3a31461020c575b600080fd5b6100c56004803603608081101561006557600080fd5b81019080803573ffffffffffffffffffffffffffffffffffffffff169060200190929190803573ffffffffffffffffffffffffffffffffffffffff1690602001909291908035906020019092919080359060200190929190505050610267565b005b3480156100d357600080fd5b50610100600480360360208110156100ea57600080fd5b8101908080359060200190929190505050610361565b604051808273ffffffffffffffffffffffffffffffffffffffff1673ffffffffffffffffffffffffffffffffffffffff16815260200191505060405180910390f35b34801561014e57600080fd5b5061017b6004803603602081101561016557600080fd5b81019080803590602001909291905050506103a0565b6040518082815260200191505060405180910390f35b34801561019d57600080fd5b506101ca600480360360208110156101b457600080fd5b81019080803590602001909291905050506103bf565b604051808273ffffffffffffffffffffffffffffffffffffffff1673ffffffffffffffffffffffffffffffffffffffff16815260200191505060405180910390f35b34801561021857600080fd5b506102656004803603604081101561022f57600080fd5b81019080803573ffffffffffffffffffffffffffffffffffffffff169060200190929190803590602001909291905050506103fe565b005b60405180606001604052808573ffffffffffffffffffffffffffffffffffffffff1681526020018473ffffffffffffffffffffffffffffffffffffffff1681526020018381525060008083815260200190815260200160002060008201518160000160006101000a81548173ffffffffffffffffffffffffffffffffffffffff021916908373ffffffffffffffffffffffffffffffffffffffff16021790555060208201518160010160006101000a81548173ffffffffffffffffffffffffffffffffffffffff021916908373ffffffffffffffffffffffffffffffffffffffff1602179055506040820151816002015590505050505050565b600080600083815260200190815260200160002060010160009054906101000a900473ffffffffffffffffffffffffffffffffffffffff169050919050565b6000806000838152602001908152602001600020600201549050919050565b600080600083815260200190815260200160002060000160009054906101000a900473ffffffffffffffffffffffffffffffffffffffff169050919050565b6000806000838152602001908152602001600020600201549050600080838152602001908152602001600020600080820160006101000a81549073ffffffffffffffffffffffffffffffffffffffff02191690556001820160006101000a81549073ffffffffffffffffffffffffffffffffffffffff0219169055600282016000905550506104ac818473ffffffffffffffffffffffffffffffffffffffff166104b190919063ffffffff16565b505050565b80471015610527576040517f08c379a000000000000000000000000000000000000000000000000000000000815260040180806020018281038252601d8152602001807f416464726573733a20696e73756666696369656e742062616c616e636500000081525060200191505060405180910390fd5b60008273ffffffffffffffffffffffffffffffffffffffff168260405180600001905060006040518083038185875af1925050503d8060008114610587576040519150601f19603f3d011682016040523d82523d6000602084013e61058c565b606091505b50509050806105e6576040517f08c379a000000000000000000000000000000000000000000000000000000000815260040180806020018281038252603a8152602001806105ec603a913960400191505060405180910390fd5b50505056fe416464726573733a20756e61626c6520746f2073656e642076616c75652c20726563697069656e74206d61792068617665207265766572746564a2646970667358221220b892243101033de0a41ddfb0b0f6785602512fa4b73fe4d2564f38caf0d80c6564736f6c63430006060033412066756e6374696f6e2077697468207468652073616d65206e616d6520616c726561647920657869737421436f6e747261637420696e7374616e63652068617320616c7265616479206265656e20696e697469616c697a65645468652066756e6374696f6e20796f75277265206c6f6f6b696e6720666f7220646f6573206e6f7420657869737421203a2728a2646970667358221220185b5250b92ed76351b46605eb7bbc50bc69ce0ad9ba47b0482721bfc5b3074a64736f6c63430006060033",
  "immutableReferences": {},
  "source": "pragma solidity >=0.4.22 <0.7.0;\r\n\r\nimport \"./EtherlessStorage.sol\";\r\nimport \"./EtherlessEscrow.sol\";\r\nimport \"@openzeppelin/contracts-ethereum-package/contracts/Initializable.sol\";\r\n\r\ncontract EtherlessSmart is Initializable {\r\n\r\n  address ownerAddress;\r\n  uint256 contractBalance;\r\n  uint256 requestId;\r\n\r\n  EtherlessStorage private ethStorage;\r\n  EtherlessEscrow private escrow;\r\n\r\n  //events\r\n  //event run\r\n  event runRequest(string funcname, string param, uint256 indexed id);\r\n  //event response\r\n  event response(string result, uint256 indexed id);\r\n\r\n  modifier onlyOwner(address _invokedFrom) {\r\n    require(_invokedFrom == ownerAddress, \"You are not the owner of the contract!\");\r\n    _;\r\n  }\r\n\r\n  //TODO: check for removal of contractBalance\r\n  function initialize (EtherlessStorage _functions) initializer public{\r\n    contractBalance = 0;\r\n    requestId = 0;\r\n    ownerAddress = msg.sender;\r\n    ethStorage = _functions;\r\n    escrow = new EtherlessEscrow();\r\n  }\r\n\r\n  //TODO: finish function deploy\r\n  //[DEPLOY] adds a function to the list\r\n  function addFunction(string memory name, string memory signature, uint256 price, string memory description) public payable {\r\n    require(ethStorage.existsFunction(name) == false, \"A function with the same name already exist!\");\r\n    ethStorage.insertNewFunction(name, signature, price, msg.sender, description);\r\n  }\r\n\r\n  //[RUN] runFunction -> requests execution of the function\r\n  function runFunction(string memory funcName, string memory param) public payable {\r\n    require(ethStorage.existsFunction(funcName), \"The function you're looking for does not exist! :'(\");\r\n    uint256 funcPrice = ethStorage.getFuncPrice(funcName);\r\n    address payable funcDev = ethStorage.getFuncDev(funcName);\r\n\r\n    require(msg.value >= funcPrice, \"Insufficient amount sent! :'(\");\r\n    //contractBalance += msg.value;\r\n    getNewId();\r\n    escrow.deposit(msg.sender, funcDev, funcPrice, requestId);\r\n    emit runRequest(funcName, param, requestId);\r\n  }\r\n\r\n  //resultFunction -> returns the result of a function execution\r\n  function resultFunction(string memory result, uint256 id) public /*onlyOwner(ownerAddress)*/{\r\n    escrow.withdraw(escrow.getBeneficiary(id), id);\r\n    emit response(result, id);\r\n  }\r\n\r\n  //errorFunction -> returns the failure message of a function execution\r\n  function errorFunction(string memory result, uint256 id) public /*onlyOwner(ownerAddress)*/{\r\n    escrow.withdraw(escrow.getSender(id), id);\r\n    emit response(result, id);\r\n  }\r\n\r\n  //returns the price of a single function\r\n  function getCost(string memory _funcName) public view returns (uint256){\r\n    return ethStorage.getFuncPrice(_funcName);\r\n  }\r\n\r\n  //[INFO] returns the information of a single function\r\n  function getInfo(string memory _funcName) public view returns (string memory){\r\n    require(ethStorage.existsFunction(_funcName), \"The function you're looking for does not exist! :'(\");\r\n    return ethStorage.getFuncInfo(_funcName);\r\n  }\r\n\r\n  //[LIST] returns a list of all the available functions\r\n  function getFuncList() public view returns (string memory){\r\n    return ethStorage.getList();\r\n  }\r\n\r\n  //TODO: test if id creation is fixed\r\n  //getNewId -> increments requestId\r\n  function getNewId() private returns (uint256){\r\n    requestId = requestId+1;\r\n    return requestId;\r\n  }\r\n}",
  "sourcePath": "C:\\Users\\verof\\Documents\\GitHub\\etherless-smart\\contracts\\EtherlessSmart.sol",
  "compiler": {
    "name": "solc",
    "version": "0.6.6+commit.6c089d02.Emscripten.clang"
  },
  "schemaVersion": "3.2.0",
  "updatedAt": "2020-05-31T07:48:20.178Z",
  "devdoc": {
    "methods": {}
  },
  "userdoc": {
    "methods": {}
  }
}