{
  "contractName": "EtherlessSmart",
  "abi": [
    {
      "anonymous": false,
      "inputs": [
        {
          "indexed": false,
          "internalType": "string",
          "name": "funcname",
          "type": "string"
        },
        {
          "indexed": true,
          "internalType": "uint256",
          "name": "id",
          "type": "uint256"
        }
      ],
      "name": "deleteRequest",
      "type": "event"
    },
    {
      "anonymous": false,
      "inputs": [
        {
          "indexed": false,
          "internalType": "string",
          "name": "funcname",
          "type": "string"
        },
        {
          "indexed": false,
          "internalType": "string",
          "name": "signature",
          "type": "string"
        },
        {
          "indexed": false,
          "internalType": "string",
          "name": "funchash",
          "type": "string"
        },
        {
          "indexed": true,
          "internalType": "uint256",
          "name": "id",
          "type": "uint256"
        }
      ],
      "name": "deployRequest",
      "type": "event"
    },
    {
      "anonymous": false,
      "inputs": [
        {
          "indexed": false,
          "internalType": "string",
          "name": "name",
          "type": "string"
        },
        {
          "indexed": false,
          "internalType": "string",
          "name": "signature",
          "type": "string"
        },
        {
          "indexed": false,
          "internalType": "string",
          "name": "funcHash",
          "type": "string"
        },
        {
          "indexed": true,
          "internalType": "uint256",
          "name": "requestId",
          "type": "uint256"
        }
      ],
      "name": "editRequest",
      "type": "event"
    },
    {
      "anonymous": false,
      "inputs": [
        {
          "indexed": false,
          "internalType": "string",
          "name": "result",
          "type": "string"
        },
        {
          "indexed": true,
          "internalType": "uint256",
          "name": "id",
          "type": "uint256"
        }
      ],
      "name": "resultError",
      "type": "event"
    },
    {
      "anonymous": false,
      "inputs": [
        {
          "indexed": false,
          "internalType": "string",
          "name": "result",
          "type": "string"
        },
        {
          "indexed": true,
          "internalType": "uint256",
          "name": "id",
          "type": "uint256"
        }
      ],
      "name": "resultOk",
      "type": "event"
    },
    {
      "anonymous": false,
      "inputs": [
        {
          "indexed": false,
          "internalType": "string",
          "name": "funcname",
          "type": "string"
        },
        {
          "indexed": false,
          "internalType": "string",
          "name": "param",
          "type": "string"
        },
        {
          "indexed": true,
          "internalType": "uint256",
          "name": "id",
          "type": "uint256"
        }
      ],
      "name": "runRequest",
      "type": "event"
    },
    {
      "stateMutability": "payable",
      "type": "fallback"
    },
    {
      "stateMutability": "payable",
      "type": "receive"
    },
    {
      "inputs": [
        {
          "internalType": "contract EtherlessStorage",
          "name": "functions",
          "type": "address"
        },
        {
          "internalType": "address",
          "name": "serverAddr",
          "type": "address"
        },
        {
          "internalType": "uint256",
          "name": "price",
          "type": "uint256"
        }
      ],
      "name": "initialize",
      "outputs": [],
      "stateMutability": "nonpayable",
      "type": "function"
    },
    {
      "inputs": [
        {
          "internalType": "string",
          "name": "name",
          "type": "string"
        },
        {
          "internalType": "string",
          "name": "signature",
          "type": "string"
        },
        {
          "internalType": "string",
          "name": "description",
          "type": "string"
        },
        {
          "internalType": "string",
          "name": "funchash",
          "type": "string"
        }
      ],
      "name": "deployFunction",
      "outputs": [],
      "stateMutability": "payable",
      "type": "function"
    },
    {
      "inputs": [
        {
          "internalType": "string",
          "name": "funcName",
          "type": "string"
        },
        {
          "internalType": "string",
          "name": "param",
          "type": "string"
        }
      ],
      "name": "runFunction",
      "outputs": [],
      "stateMutability": "payable",
      "type": "function"
    },
    {
      "inputs": [
        {
          "internalType": "string",
          "name": "name",
          "type": "string"
        }
      ],
      "name": "deleteFunction",
      "outputs": [],
      "stateMutability": "payable",
      "type": "function"
    },
    {
      "inputs": [
        {
          "internalType": "string",
          "name": "name",
          "type": "string"
        },
        {
          "internalType": "string",
          "name": "signature",
          "type": "string"
        },
        {
          "internalType": "string",
          "name": "funcHash",
          "type": "string"
        }
      ],
      "name": "editFunction",
      "outputs": [],
      "stateMutability": "payable",
      "type": "function"
    },
    {
      "inputs": [
        {
          "internalType": "string",
          "name": "name",
          "type": "string"
        },
        {
          "internalType": "string",
          "name": "descr",
          "type": "string"
        }
      ],
      "name": "editFunctionDescr",
      "outputs": [],
      "stateMutability": "payable",
      "type": "function"
    },
    {
      "inputs": [
        {
          "internalType": "string",
          "name": "message",
          "type": "string"
        },
        {
          "internalType": "string",
          "name": "name",
          "type": "string"
        },
        {
          "internalType": "uint256",
          "name": "id",
          "type": "uint256"
        },
        {
          "internalType": "bool",
          "name": "successful",
          "type": "bool"
        }
      ],
      "name": "deployResult",
      "outputs": [],
      "stateMutability": "nonpayable",
      "type": "function"
    },
    {
      "inputs": [
        {
          "internalType": "string",
          "name": "message",
          "type": "string"
        },
        {
          "internalType": "uint256",
          "name": "id",
          "type": "uint256"
        },
        {
          "internalType": "bool",
          "name": "successful",
          "type": "bool"
        }
      ],
      "name": "runResult",
      "outputs": [],
      "stateMutability": "nonpayable",
      "type": "function"
    },
    {
      "inputs": [
        {
          "internalType": "string",
          "name": "message",
          "type": "string"
        },
        {
          "internalType": "string",
          "name": "name",
          "type": "string"
        },
        {
          "internalType": "uint256",
          "name": "id",
          "type": "uint256"
        },
        {
          "internalType": "bool",
          "name": "successful",
          "type": "bool"
        }
      ],
      "name": "deleteResult",
      "outputs": [],
      "stateMutability": "nonpayable",
      "type": "function"
    },
    {
      "inputs": [
        {
          "internalType": "string",
          "name": "message",
          "type": "string"
        },
        {
          "internalType": "string",
          "name": "name",
          "type": "string"
        },
        {
          "internalType": "string",
          "name": "signature",
          "type": "string"
        },
        {
          "internalType": "uint256",
          "name": "id",
          "type": "uint256"
        },
        {
          "internalType": "bool",
          "name": "successful",
          "type": "bool"
        }
      ],
      "name": "editResult",
      "outputs": [],
      "stateMutability": "nonpayable",
      "type": "function"
    },
    {
      "inputs": [
        {
          "internalType": "string",
          "name": "funcName",
          "type": "string"
        }
      ],
      "name": "getCost",
      "outputs": [
        {
          "internalType": "uint256",
          "name": "",
          "type": "uint256"
        }
      ],
      "stateMutability": "view",
      "type": "function"
    },
    {
      "inputs": [
        {
          "internalType": "string",
          "name": "funcName",
          "type": "string"
        }
      ],
      "name": "getInfo",
      "outputs": [
        {
          "internalType": "string",
          "name": "",
          "type": "string"
        }
      ],
      "stateMutability": "view",
      "type": "function"
    },
    {
      "inputs": [],
      "name": "getFuncList",
      "outputs": [
        {
          "internalType": "string",
          "name": "",
          "type": "string"
        }
      ],
      "stateMutability": "view",
      "type": "function"
    },
    {
      "inputs": [
        {
          "internalType": "address payable",
          "name": "dev",
          "type": "address"
        }
      ],
      "name": "getOwnedList",
      "outputs": [
        {
          "internalType": "string",
          "name": "",
          "type": "string"
        }
      ],
      "stateMutability": "view",
      "type": "function"
    },
    {
      "inputs": [
        {
          "internalType": "uint256",
          "name": "id",
          "type": "uint256"
        }
      ],
      "name": "getDeposit",
      "outputs": [
        {
          "internalType": "uint256",
          "name": "",
          "type": "uint256"
        }
      ],
      "stateMutability": "view",
      "type": "function"
    },
    {
      "inputs": [],
      "name": "getId",
      "outputs": [
        {
          "internalType": "uint256",
          "name": "",
          "type": "uint256"
        }
      ],
      "stateMutability": "view",
      "type": "function"
    }
  ],
  "bytecode": "0x608060405234801561001057600080fd5b506148fc806100206000396000f3fe6080604052600436106100f75760003560e01c80637ee005ab1161008a5780639f9fb968116100595780639f9fb96814610a3a578063b2414f0014610a64578063d51e84bb14610c12578063e4aec51314610e4557610102565b80637ee005ab1461065e578063835772ee1461070f5780638372cdb5146108d15780639ca3c29c1461098957610102565b806337b4c1ac116100c657806337b4c1ac146104235780635d1ca631146104565780636001c2601461047d5780636eeca2f01461052157610102565b8063086751f7146101045780630a79b8891461022d5780630ecbfcea146103565780631794bb3c146103e057610102565b366101025734603555005b005b6101026004803603604081101561011a57600080fd5b810190602081018135600160201b81111561013457600080fd5b82018360208201111561014657600080fd5b803590602001918460018302840111600160201b8311171561016757600080fd5b91908080601f0160208091040260200160405190810160405280939291908181526020018383808284376000920191909152509295949360208101935035915050600160201b8111156101b957600080fd5b8201836020820111156101cb57600080fd5b803590602001918460018302840111600160201b831117156101ec57600080fd5b91908080601f016020809104026020016040519081016040528093929190818152602001838380828437600092019190915250929550610f82945050505050565b6101026004803603604081101561024357600080fd5b810190602081018135600160201b81111561025d57600080fd5b82018360208201111561026f57600080fd5b803590602001918460018302840111600160201b8311171561029057600080fd5b91908080601f0160208091040260200160405190810160405280939291908181526020018383808284376000920191909152509295949360208101935035915050600160201b8111156102e257600080fd5b8201836020820111156102f457600080fd5b803590602001918460018302840111600160201b8311171561031557600080fd5b91908080601f01602080910402602001604051908101604052809392919081815260200183838082843760009201919091525092955061142d945050505050565b34801561036257600080fd5b5061036b611904565b6040805160208082528351818301528351919283929083019185019080838360005b838110156103a557818101518382015260200161038d565b50505050905090810190601f1680156103d25780820380516001836020036101000a031916815260200191505b509250505060405180910390f35b3480156103ec57600080fd5b506101026004803603606081101561040357600080fd5b506001600160a01b03813581169160208101359091169060400135611a39565b34801561042f57600080fd5b5061036b6004803603602081101561044657600080fd5b50356001600160a01b0316611bc1565b34801561046257600080fd5b5061046b611d04565b60408051918252519081900360200190f35b6101026004803603602081101561049357600080fd5b810190602081018135600160201b8111156104ad57600080fd5b8201836020820111156104bf57600080fd5b803590602001918460018302840111600160201b831117156104e057600080fd5b91908080601f016020809104026020016040519081016040528093929190818152602001838380828437600092019190915250929550611d0a945050505050565b34801561052d57600080fd5b506101026004803603608081101561054457600080fd5b810190602081018135600160201b81111561055e57600080fd5b82018360208201111561057057600080fd5b803590602001918460018302840111600160201b8311171561059157600080fd5b91908080601f0160208091040260200160405190810160405280939291908181526020018383808284376000920191909152509295949360208101935035915050600160201b8111156105e357600080fd5b8201836020820111156105f557600080fd5b803590602001918460018302840111600160201b8311171561061657600080fd5b91908080601f016020809104026020016040519081016040528093929190818152602001838380828437600092019190915250929550508235935050506020013515156120ab565b34801561066a57600080fd5b5061036b6004803603602081101561068157600080fd5b810190602081018135600160201b81111561069b57600080fd5b8201836020820111156106ad57600080fd5b803590602001918460018302840111600160201b831117156106ce57600080fd5b91908080601f016020809104026020016040519081016040528093929190818152602001838380828437600092019190915250929550612586945050505050565b34801561071b57600080fd5b50610102600480360360a081101561073257600080fd5b810190602081018135600160201b81111561074c57600080fd5b82018360208201111561075e57600080fd5b803590602001918460018302840111600160201b8311171561077f57600080fd5b91908080601f0160208091040260200160405190810160405280939291908181526020018383808284376000920191909152509295949360208101935035915050600160201b8111156107d157600080fd5b8201836020820111156107e357600080fd5b803590602001918460018302840111600160201b8311171561080457600080fd5b91908080601f0160208091040260200160405190810160405280939291908181526020018383808284376000920191909152509295949360208101935035915050600160201b81111561085657600080fd5b82018360208201111561086857600080fd5b803590602001918460018302840111600160201b8311171561088957600080fd5b91908080601f01602080910402602001604051908101604052809392919081815260200183838082843760009201919091525092955050823593505050602001351515612740565b3480156108dd57600080fd5b50610102600480360360608110156108f457600080fd5b810190602081018135600160201b81111561090e57600080fd5b82018360208201111561092057600080fd5b803590602001918460018302840111600160201b8311171561094157600080fd5b91908080601f01602080910402602001604051908101604052809392919081815260200183838082843760009201919091525092955050823593505050602001351515612bbc565b34801561099557600080fd5b5061046b600480360360208110156109ac57600080fd5b810190602081018135600160201b8111156109c657600080fd5b8201836020820111156109d857600080fd5b803590602001918460018302840111600160201b831117156109f957600080fd5b91908080601f016020809104026020016040519081016040528093929190818152602001838380828437600092019190915250929550612f09945050505050565b348015610a4657600080fd5b5061046b60048036036020811015610a5d57600080fd5b5035612fe3565b61010260048036036060811015610a7a57600080fd5b810190602081018135600160201b811115610a9457600080fd5b820183602082011115610aa657600080fd5b803590602001918460018302840111600160201b83111715610ac757600080fd5b91908080601f0160208091040260200160405190810160405280939291908181526020018383808284376000920191909152509295949360208101935035915050600160201b811115610b1957600080fd5b820183602082011115610b2b57600080fd5b803590602001918460018302840111600160201b83111715610b4c57600080fd5b91908080601f0160208091040260200160405190810160405280939291908181526020018383808284376000920191909152509295949360208101935035915050600160201b811115610b9e57600080fd5b820183602082011115610bb057600080fd5b803590602001918460018302840111600160201b83111715610bd157600080fd5b91908080601f01602080910402602001604051908101604052809392919081815260200183838082843760009201919091525092955061302f945050505050565b61010260048036036080811015610c2857600080fd5b810190602081018135600160201b811115610c4257600080fd5b820183602082011115610c5457600080fd5b803590602001918460018302840111600160201b83111715610c7557600080fd5b91908080601f0160208091040260200160405190810160405280939291908181526020018383808284376000920191909152509295949360208101935035915050600160201b811115610cc757600080fd5b820183602082011115610cd957600080fd5b803590602001918460018302840111600160201b83111715610cfa57600080fd5b91908080601f0160208091040260200160405190810160405280939291908181526020018383808284376000920191909152509295949360208101935035915050600160201b811115610d4c57600080fd5b820183602082011115610d5e57600080fd5b803590602001918460018302840111600160201b83111715610d7f57600080fd5b91908080601f0160208091040260200160405190810160405280939291908181526020018383808284376000920191909152509295949360208101935035915050600160201b811115610dd157600080fd5b820183602082011115610de357600080fd5b803590602001918460018302840111600160201b83111715610e0457600080fd5b91908080601f0160208091040260200160405190810160405280939291908181526020018383808284376000920191909152509295506134a3945050505050565b348015610e5157600080fd5b5061010260048036036080811015610e6857600080fd5b810190602081018135600160201b811115610e8257600080fd5b820183602082011115610e9457600080fd5b803590602001918460018302840111600160201b83111715610eb557600080fd5b91908080601f0160208091040260200160405190810160405280939291908181526020018383808284376000920191909152509295949360208101935035915050600160201b811115610f0757600080fd5b820183602082011115610f1957600080fd5b803590602001918460018302840111600160201b83111715610f3a57600080fd5b91908080601f016020809104026020016040519081016040528093929190818152602001838380828437600092019190915250929550508235935050506020013515156139a3565b6038546040516384ecd68560e01b81526020600482018181528551602484015285516001600160a01b03909416936384ecd68593879383926044909201919085019080838360005b83811015610fe2578181015183820152602001610fca565b50505050905090810190601f16801561100f5780820380516001836020036101000a031916815260200191505b509250505060206040518083038186803b15801561102c57600080fd5b505afa158015611040573d6000803e3d6000fd5b505050506040513d602081101561105657600080fd5b50516110935760405162461bcd60e51b815260040180806020018281038252603381526020018061485a6033913960400191505060405180910390fd5b60385460405163696836b160e11b81526020600482018181528551602484015285516000946001600160a01b03169363d2d06d62938893928392604401918501908083838b5b838110156110f15781810151838201526020016110d9565b50505050905090810190601f16801561111e5780820380516001836020036101000a031916815260200191505b509250505060206040518083038186803b15801561113b57600080fd5b505afa15801561114f573d6000803e3d6000fd5b505050506040513d602081101561116557600080fd5b5051603854604051631f7bcf1160e01b81526020600482018181528751602484015287519495506000946001600160a01b0390941693631f7bcf119389938392604490920191908501908083838b5b838110156111cc5781810151838201526020016111b4565b50505050905090810190601f1680156111f95780820380516001836020036101000a031916815260200191505b509250505060206040518083038186803b15801561121657600080fd5b505afa15801561122a573d6000803e3d6000fd5b505050506040513d602081101561124057600080fd5b5051905034821115611299576040805162461bcd60e51b815260206004820152601d60248201527f496e73756666696369656e7420616d6f756e742073656e7421203a2728000000604482015290519081900360640190fd5b6112a1613cd0565b50603954603654604080516320e8c56560e01b81523360048201526001600160a01b038581166024830152604482018790526064820193909352905191909216916320e8c56591859160848082019260009290919082900301818588803b15801561130b57600080fd5b505af115801561131f573d6000803e3d6000fd5b50505050506036547f7ef872871460aa4a20c88ad733e51a4ef38ab384f289ec5953b389964b05ac678585604051808060200180602001838103835285818151815260200191508051906020019080838360005b8381101561138b578181015183820152602001611373565b50505050905090810190601f1680156113b85780820380516001836020036101000a031916815260200191505b50838103825284518152845160209182019186019080838360005b838110156113eb5781810151838201526020016113d3565b50505050905090810190601f1680156114185780820380516001836020036101000a031916815260200191505b5094505050505060405180910390a250505050565b6038546040516384ecd68560e01b81526020600482018181528551602484015285516001600160a01b03909416936384ecd68593879383926044909201919085019080838360005b8381101561148d578181015183820152602001611475565b50505050905090810190601f1680156114ba5780820380516001836020036101000a031916815260200191505b509250505060206040518083038186803b1580156114d757600080fd5b505afa1580156114eb573d6000803e3d6000fd5b505050506040513d602081101561150157600080fd5b505115156001146115435760405162461bcd60e51b815260040180806020018281038252603381526020018061485a6033913960400191505060405180910390fd5b603754341015611588576040805162461bcd60e51b815260206004820152601c6024820152600080516020614745833981519152604482015290519081900360640190fd5b603854604051631f7bcf1160e01b81526020600482018181528551602484015285516001600160a01b0390941693631f7bcf1193879383926044909201919085019080838360005b838110156115e85781810151838201526020016115d0565b50505050905090810190601f1680156116155780820380516001836020036101000a031916815260200191505b509250505060206040518083038186803b15801561163257600080fd5b505afa158015611646573d6000803e3d6000fd5b505050506040513d602081101561165c57600080fd5b50516001600160a01b031633146116a45760405162461bcd60e51b81526004018080602001828103825260268152602001806147856026913960400191505060405180910390fd5b6116ac613cd0565b50603954603754603354603654604080516320e8c56560e01b81523360048201526001600160a01b0393841660248201526044810185905260648101929092525191909316926320e8c5659291608480830192600092919082900301818588803b15801561171957600080fd5b505af115801561172d573d6000803e3d6000fd5b505060385460408051633b0b873360e01b815260048101918252875160448201528751600096506001600160a01b039093169450633b0b873393508792879291829160248201916064019060208701908083838d5b8381101561179a578181015183820152602001611782565b50505050905090810190601f1680156117c75780820380516001836020036101000a031916815260200191505b50838103825284518152845160209182019186019080838360005b838110156117fa5781810151838201526020016117e2565b50505050905090810190601f1680156118275780820380516001836020036101000a031916815260200191505b50945050505050602060405180830381600087803b15801561184857600080fd5b505af115801561185c573d6000803e3d6000fd5b505050506040513d602081101561187257600080fd5b50519050600181151514156118c25760365460008051602061476583398151915260405180806020018281038252603a81526020018061488d603a913960400191505060405180910390a26118ff565b6036546000805160206147658339815191526040518080602001828103825260328152602001806148286032913960400191505060405180910390a25b505050565b60385460408051634a15bb2d60e11b815290516060926001600160a01b03169163942b765a916004808301926000929190829003018186803b15801561194957600080fd5b505afa15801561195d573d6000803e3d6000fd5b505050506040513d6000823e601f3d908101601f19168201604052602081101561198657600080fd5b8101908080516040519392919084600160201b8211156119a557600080fd5b9083019060208201858111156119ba57600080fd5b8251600160201b8111828201881017156119d357600080fd5b82525081516020918201929091019080838360005b83811015611a005781810151838201526020016119e8565b50505050905090810190601f168015611a2d5780820380516001836020036101000a031916815260200191505b50604052505050905090565b600054610100900460ff1680611a525750611a52613cde565b80611a60575060005460ff16155b611a9b5760405162461bcd60e51b815260040180806020018281038252602e8152602001806147fa602e913960400191505060405180910390fd5b600054610100900460ff16158015611ac6576000805460ff1961ff0019909116610100171660011790555b60338054306001600160a01b0319918216179091556034805482166001600160a01b038681169190911790915560006035819055603655603784905560388054909216908616179055604051611b1b90613ce4565b604051809103906000f080158015611b37573d6000803e3d6000fd5b50603980546001600160a01b0319166001600160a01b0392831617908190556040805163204a7f0760e21b815290519190921691638129fc1c91600480830192600092919082900301818387803b158015611b9157600080fd5b505af1158015611ba5573d6000803e3d6000fd5b505050508015611bbb576000805461ff00191690555b50505050565b6038546040805163d0e4d49560e01b81526001600160a01b0384811660048301529151606093929092169163d0e4d49591602480820192600092909190829003018186803b158015611c1257600080fd5b505afa158015611c26573d6000803e3d6000fd5b505050506040513d6000823e601f3d908101601f191682016040526020811015611c4f57600080fd5b8101908080516040519392919084600160201b821115611c6e57600080fd5b908301906020820185811115611c8357600080fd5b8251600160201b811182820188101715611c9c57600080fd5b82525081516020918201929091019080838360005b83811015611cc9578181015183820152602001611cb1565b50505050905090810190601f168015611cf65780820380516001836020036101000a031916815260200191505b506040525050509050919050565b60365490565b6038546040516384ecd68560e01b81526020600482018181528451602484015284516001600160a01b03909416936384ecd68593869383926044909201919085019080838360005b83811015611d6a578181015183820152602001611d52565b50505050905090810190601f168015611d975780820380516001836020036101000a031916815260200191505b509250505060206040518083038186803b158015611db457600080fd5b505afa158015611dc8573d6000803e3d6000fd5b505050506040513d6020811015611dde57600080fd5b50511515600114611e205760405162461bcd60e51b815260040180806020018281038252603381526020018061485a6033913960400191505060405180910390fd5b603754341015611e65576040805162461bcd60e51b815260206004820152601c6024820152600080516020614745833981519152604482015290519081900360640190fd5b603854604051631f7bcf1160e01b815260206004820181815284516024840152845133946001600160a01b031693631f7bcf119387939283926044019185019080838360005b83811015611ec3578181015183820152602001611eab565b50505050905090810190601f168015611ef05780820380516001836020036101000a031916815260200191505b509250505060206040518083038186803b158015611f0d57600080fd5b505afa158015611f21573d6000803e3d6000fd5b505050506040513d6020811015611f3757600080fd5b50516001600160a01b031614611f7e5760405162461bcd60e51b81526004018080602001828103825260268152602001806147856026913960400191505060405180910390fd5b611f86613cd0565b50603954603754603354603654604080516320e8c56560e01b81523360048201526001600160a01b0393841660248201526044810185905260648101929092525191909316926320e8c5659291608480830192600092919082900301818588803b158015611ff357600080fd5b505af1158015612007573d6000803e3d6000fd5b50505050506036547fd7c011791b8d0a3caa94d0e33bffaa7e4b1d4790699a98bd660d5f1f9541b17b826040518080602001828103825283818151815260200191508051906020019080838360005b8381101561206e578181015183820152602001612056565b50505050905090810190601f16801561209b5780820380516001836020036101000a031916815260200191505b509250505060405180910390a250565b60345433906001600160a01b031681146120f65760405162461bcd60e51b81526004018080602001828103825260238152602001806147d76023913960400191505060405180910390fd5b60018215151415612339576039546040805163302df08360e01b81526004810186905290516001600160a01b039092169163f3fef3a391839163302df08391602480820192602092909190829003018186803b15801561215557600080fd5b505afa158015612169573d6000803e3d6000fd5b505050506040513d602081101561217f57600080fd5b5051604080516001600160e01b031960e085901b1681526001600160a01b0390921660048301526024820187905251604480830192600092919082900301818387803b1580156121ce57600080fd5b505af11580156121e2573d6000803e3d6000fd5b50506038546040516331b4ce1b60e21b81526020600482018181528951602484015289516001600160a01b03909416955063c6d3386c94508993909283926044909101919085019080838360005b83811015612248578181015183820152602001612230565b50505050905090810190601f1680156122755780820380516001836020036101000a031916815260200191505b5092505050600060405180830381600087803b15801561229457600080fd5b505af11580156122a8573d6000803e3d6000fd5b5050505082600080516020614765833981519152866040518080602001828103825283818151815260200191508051906020019080838360005b838110156122fa5781810151838201526020016122e2565b50505050905090810190601f1680156123275780820380516001836020036101000a031916815260200191505b509250505060405180910390a261257f565b60395460408051635cb8981560e11b81526004810186905290516001600160a01b039092169163f3fef3a391839163b971302a91602480820192602092909190829003018186803b15801561238d57600080fd5b505afa1580156123a1573d6000803e3d6000fd5b505050506040513d60208110156123b757600080fd5b5051604080516001600160e01b031960e085901b1681526001600160a01b0390921660048301526024820187905251604480830192600092919082900301818387803b15801561240657600080fd5b505af115801561241a573d6000803e3d6000fd5b505060385460405163c3e0d45f60e01b81526020600482018181528951602484015289516001600160a01b03909416955063c3e0d45f94508993909283926044909101919085019080838360005b83811015612480578181015183820152602001612468565b50505050905090810190601f1680156124ad5780820380516001836020036101000a031916815260200191505b5092505050600060405180830381600087803b1580156124cc57600080fd5b505af11580156124e0573d6000803e3d6000fd5b50505050827ff718f8e5c5d13a664f95e1a560273c7049005814ca180f1a92783bdcca7053c2866040518080602001828103825283818151815260200191508051906020019080838360005b8381101561254457818101518382015260200161252c565b50505050905090810190601f1680156125715780820380516001836020036101000a031916815260200191505b509250505060405180910390a25b5050505050565b6038546040516384ecd68560e01b81526020600482018181528451602484015284516060946001600160a01b0316936384ecd6859387939283926044019185019080838360005b838110156125e55781810151838201526020016125cd565b50505050905090810190601f1680156126125780820380516001836020036101000a031916815260200191505b509250505060206040518083038186803b15801561262f57600080fd5b505afa158015612643573d6000803e3d6000fd5b505050506040513d602081101561265957600080fd5b50516126965760405162461bcd60e51b815260040180806020018281038252603381526020018061485a6033913960400191505060405180910390fd5b6038546040516341994f6960e11b81526020600482018181528551602484015285516001600160a01b03909416936383329ed293879383926044909201919085019080838360005b838110156126f65781810151838201526020016126de565b50505050905090810190601f1680156127235780820380516001836020036101000a031916815260200191505b509250505060006040518083038186803b158015611c1257600080fd5b60345433906001600160a01b0316811461278b5760405162461bcd60e51b81526004018080602001828103825260238152602001806147d76023913960400191505060405180910390fd5b60018215151415612a34576039546040805163302df08360e01b81526004810186905290516001600160a01b039092169163f3fef3a391839163302df08391602480820192602092909190829003018186803b1580156127ea57600080fd5b505afa1580156127fe573d6000803e3d6000fd5b505050506040513d602081101561281457600080fd5b5051604080516001600160e01b031960e085901b1681526001600160a01b0390921660048301526024820187905251604480830192600092919082900301818387803b15801561286357600080fd5b505af1158015612877573d6000803e3d6000fd5b5050603854604080516347e54e6360e11b8152600481019182528951604482015289516001600160a01b039093169450638fca9cc6935089928992918291602482019160640190602087019080838360005b838110156128e15781810151838201526020016128c9565b50505050905090810190601f16801561290e5780820380516001836020036101000a031916815260200191505b50838103825284518152845160209182019186019080838360005b83811015612941578181015183820152602001612929565b50505050905090810190601f16801561296e5780820380516001836020036101000a031916815260200191505b50945050505050600060405180830381600087803b15801561298f57600080fd5b505af11580156129a3573d6000803e3d6000fd5b5050505082600080516020614765833981519152876040518080602001828103825283818151815260200191508051906020019080838360005b838110156129f55781810151838201526020016129dd565b50505050905090810190601f168015612a225780820380516001836020036101000a031916815260200191505b509250505060405180910390a2612bb4565b60395460408051635cb8981560e11b81526004810186905290516001600160a01b039092169163f3fef3a391839163b971302a91602480820192602092909190829003018186803b158015612a8857600080fd5b505afa158015612a9c573d6000803e3d6000fd5b505050506040513d6020811015612ab257600080fd5b5051604080516001600160e01b031960e085901b1681526001600160a01b0390921660048301526024820187905251604480830192600092919082900301818387803b158015612b0157600080fd5b505af1158015612b15573d6000803e3d6000fd5b50505050827ff718f8e5c5d13a664f95e1a560273c7049005814ca180f1a92783bdcca7053c2876040518080602001828103825283818151815260200191508051906020019080838360005b83811015612b79578181015183820152602001612b61565b50505050905090810190601f168015612ba65780820380516001836020036101000a031916815260200191505b509250505060405180910390a25b505050505050565b60345433906001600160a01b03168114612c075760405162461bcd60e51b81526004018080602001828103825260238152602001806147d76023913960400191505060405180910390fd5b60018215151415612d84576039546040805163302df08360e01b81526004810186905290516001600160a01b039092169163f3fef3a391839163302df08391602480820192602092909190829003018186803b158015612c6657600080fd5b505afa158015612c7a573d6000803e3d6000fd5b505050506040513d6020811015612c9057600080fd5b5051604080516001600160e01b031960e085901b1681526001600160a01b0390921660048301526024820187905251604480830192600092919082900301818387803b158015612cdf57600080fd5b505af1158015612cf3573d6000803e3d6000fd5b5050505082600080516020614765833981519152856040518080602001828103825283818151815260200191508051906020019080838360005b83811015612d45578181015183820152602001612d2d565b50505050905090810190601f168015612d725780820380516001836020036101000a031916815260200191505b509250505060405180910390a2611bbb565b60395460408051635cb8981560e11b81526004810186905290516001600160a01b039092169163f3fef3a391839163b971302a91602480820192602092909190829003018186803b158015612dd857600080fd5b505afa158015612dec573d6000803e3d6000fd5b505050506040513d6020811015612e0257600080fd5b5051604080516001600160e01b031960e085901b1681526001600160a01b0390921660048301526024820187905251604480830192600092919082900301818387803b158015612e5157600080fd5b505af1158015612e65573d6000803e3d6000fd5b50505050827ff718f8e5c5d13a664f95e1a560273c7049005814ca180f1a92783bdcca7053c2856040518080602001828103825283818151815260200191508051906020019080838360005b83811015612ec9578181015183820152602001612eb1565b50505050905090810190601f168015612ef65780820380516001836020036101000a031916815260200191505b509250505060405180910390a250505050565b60385460405163696836b160e11b81526020600482018181528451602484015284516000946001600160a01b03169363d2d06d62938793928392604401918501908083838b5b83811015612f67578181015183820152602001612f4f565b50505050905090810190601f168015612f945780820380516001836020036101000a031916815260200191505b509250505060206040518083038186803b158015612fb157600080fd5b505afa158015612fc5573d6000803e3d6000fd5b505050506040513d6020811015612fdb57600080fd5b505192915050565b60395460408051633e7c287960e11b81526004810184905290516000926001600160a01b031691637cf850f2916024808301926020929190829003018186803b158015612fb157600080fd5b6038546040516384ecd68560e01b81526020600482018181528651602484015286516001600160a01b03909416936384ecd68593889383926044909201919085019080838360005b8381101561308f578181015183820152602001613077565b50505050905090810190601f1680156130bc5780820380516001836020036101000a031916815260200191505b509250505060206040518083038186803b1580156130d957600080fd5b505afa1580156130ed573d6000803e3d6000fd5b505050506040513d602081101561310357600080fd5b505115156001146131455760405162461bcd60e51b815260040180806020018281038252603381526020018061485a6033913960400191505060405180910390fd5b60375434101561318a576040805162461bcd60e51b815260206004820152601c6024820152600080516020614745833981519152604482015290519081900360640190fd5b603854604051631f7bcf1160e01b81526020600482018181528651602484015286516001600160a01b0390941693631f7bcf1193889383926044909201919085019080838360005b838110156131ea5781810151838201526020016131d2565b50505050905090810190601f1680156132175780820380516001836020036101000a031916815260200191505b509250505060206040518083038186803b15801561323457600080fd5b505afa158015613248573d6000803e3d6000fd5b505050506040513d602081101561325e57600080fd5b50516001600160a01b031633146132a65760405162461bcd60e51b81526004018080602001828103825260268152602001806147856026913960400191505060405180910390fd5b6132ae613cd0565b50603954603754603354603654604080516320e8c56560e01b81523360048201526001600160a01b0393841660248201526044810185905260648101929092525191909316926320e8c5659291608480830192600092919082900301818588803b15801561331b57600080fd5b505af115801561332f573d6000803e3d6000fd5b50505050506036547f4f0d87dd6f918f3249047a606fe8d36aab3f1cbfee3f355f968228413f3cf22484848460405180806020018060200180602001848103845287818151815260200191508051906020019080838360005b838110156133a0578181015183820152602001613388565b50505050905090810190601f1680156133cd5780820380516001836020036101000a031916815260200191505b50848103835286518152865160209182019188019080838360005b838110156134005781810151838201526020016133e8565b50505050905090810190601f16801561342d5780820380516001836020036101000a031916815260200191505b50848103825285518152855160209182019187019080838360005b83811015613460578181015183820152602001613448565b50505050905090810190601f16801561348d5780820380516001836020036101000a031916815260200191505b50965050505050505060405180910390a2505050565b6038546040516384ecd68560e01b81526020600482018181528751602484015287516001600160a01b03909416936384ecd68593899383926044909201919085019080838360005b838110156135035781810151838201526020016134eb565b50505050905090810190601f1680156135305780820380516001836020036101000a031916815260200191505b509250505060206040518083038186803b15801561354d57600080fd5b505afa158015613561573d6000803e3d6000fd5b505050506040513d602081101561357757600080fd5b5051156135b55760405162461bcd60e51b815260040180806020018281038252602c8152602001806147ab602c913960400191505060405180910390fd5b6037543410156135fa576040805162461bcd60e51b815260206004820152601c6024820152600080516020614745833981519152604482015290519081900360640190fd5b613602613cd0565b50603954603754603354603654604080516320e8c56560e01b81523360048201526001600160a01b0393841660248201526044810185905260648101929092525191909316926320e8c5659291608480830192600092919082900301818588803b15801561366f57600080fd5b505af1158015613683573d6000803e3d6000fd5b5050603854603754604051633912033960e01b815260448101829052336064820181905260a0600483019081528b5160a48401528b516001600160a01b039095169750633912033996508b95508a9491928a9282916024810191608482019160c4019060208b019080838360005b838110156137095781810151838201526020016136f1565b50505050905090810190601f1680156137365780820380516001836020036101000a031916815260200191505b5084810383528851815288516020918201918a019080838360005b83811015613769578181015183820152602001613751565b50505050905090810190601f1680156137965780820380516001836020036101000a031916815260200191505b50848103825285518152855160209182019187019080838360005b838110156137c95781810151838201526020016137b1565b50505050905090810190601f1680156137f65780820380516001836020036101000a031916815260200191505b5098505050505050505050600060405180830381600087803b15801561381b57600080fd5b505af115801561382f573d6000803e3d6000fd5b505050506036547f6df90bf94bf567e79d5e4d28871c347a62303575e6fad1bcfeb1721ef45909dc85858460405180806020018060200180602001848103845287818151815260200191508051906020019080838360005b8381101561389f578181015183820152602001613887565b50505050905090810190601f1680156138cc5780820380516001836020036101000a031916815260200191505b50848103835286518152865160209182019188019080838360005b838110156138ff5781810151838201526020016138e7565b50505050905090810190601f16801561392c5780820380516001836020036101000a031916815260200191505b50848103825285518152855160209182019187019080838360005b8381101561395f578181015183820152602001613947565b50505050905090810190601f16801561398c5780820380516001836020036101000a031916815260200191505b50965050505050505060405180910390a250505050565b60345433906001600160a01b031681146139ee5760405162461bcd60e51b81526004018080602001828103825260238152602001806147d76023913960400191505060405180910390fd5b60018215151415613c03576039546040805163302df08360e01b81526004810186905290516001600160a01b039092169163f3fef3a391839163302df08391602480820192602092909190829003018186803b158015613a4d57600080fd5b505afa158015613a61573d6000803e3d6000fd5b505050506040513d6020811015613a7757600080fd5b5051604080516001600160e01b031960e085901b1681526001600160a01b0390921660048301526024820187905251604480830192600092919082900301818387803b158015613ac657600080fd5b505af1158015613ada573d6000803e3d6000fd5b505060385460405163c3e0d45f60e01b81526020600482018181528951602484015289516001600160a01b03909416955063c3e0d45f94508993909283926044909101919085019080838360005b83811015613b40578181015183820152602001613b28565b50505050905090810190601f168015613b6d5780820380516001836020036101000a031916815260200191505b5092505050600060405180830381600087803b158015613b8c57600080fd5b505af1158015613ba0573d6000803e3d6000fd5b5050603854604051632646815360e01b81526020600482018181528951602484015289516001600160a01b039094169550632646815394508993909283926044909101919085019080838360008315612248578181015183820152602001612230565b60395460408051635cb8981560e11b81526004810186905290516001600160a01b039092169163f3fef3a391839163b971302a91602480820192602092909190829003018186803b158015613c5757600080fd5b505afa158015613c6b573d6000803e3d6000fd5b505050506040513d6020811015613c8157600080fd5b5051604080516001600160e01b031960e085901b1681526001600160a01b0390921660048301526024820187905251604480830192600092919082900301818387803b1580156124cc57600080fd5b603680546001019081905590565b303b1590565b610a5380613cf28339019056fe608060405234801561001057600080fd5b50610a33806100206000396000f3fe6080604052600436106100865760003560e01c80638129fc1c116100595780638129fc1c146101605780638da5cb5b14610175578063b971302a1461018a578063f2fde38b146101b4578063f3fef3a3146101e757610086565b806320e8c5651461008b578063302df083146100c9578063715018a61461010f5780637cf850f214610124575b600080fd5b6100c7600480360360808110156100a157600080fd5b506001600160a01b03813581169160208101359091169060408101359060600135610220565b005b3480156100d557600080fd5b506100f3600480360360208110156100ec57600080fd5b50356102dd565b604080516001600160a01b039092168252519081900360200190f35b34801561011b57600080fd5b506100c76102fb565b34801561013057600080fd5b5061014e6004803603602081101561014757600080fd5b503561039d565b60408051918252519081900360200190f35b34801561016c57600080fd5b506100c76103b2565b34801561018157600080fd5b506100f361045c565b34801561019657600080fd5b506100f3600480360360208110156101ad57600080fd5b503561046b565b3480156101c057600080fd5b506100c7600480360360208110156101d757600080fd5b50356001600160a01b0316610486565b3480156101f357600080fd5b506100c76004803603604081101561020a57600080fd5b506001600160a01b03813516906020013561057f565b61022861062a565b6065546001600160a01b03908116911614610278576040805162461bcd60e51b815260206004820181905260248201526000805160206109b0833981519152604482015290519081900360640190fd5b604080516060810182526001600160a01b03958616815293851660208086019182528583019485526000938452609790529120925183549085166001600160a01b03199182161784559051600184018054919095169116179092559051600290910155565b6000908152609760205260409020600101546001600160a01b031690565b61030361062a565b6065546001600160a01b03908116911614610353576040805162461bcd60e51b815260206004820181905260248201526000805160206109b0833981519152604482015290519081900360640190fd5b6065546040516000916001600160a01b0316907f8be0079c531659141344cd1fd0a4f28419497f9722a3daafe3b4186f6b6457e0908390a3606580546001600160a01b0319169055565b60009081526097602052604090206002015490565b600054610100900460ff16806103cb57506103cb61062e565b806103d9575060005460ff16155b6104145760405162461bcd60e51b815260040180806020018281038252602e8152602001806109d0602e913960400191505060405180910390fd5b600054610100900460ff1615801561043f576000805460ff1961ff0019909116610100171660011790555b610447610634565b8015610459576000805461ff00191690555b50565b6065546001600160a01b031690565b6000908152609760205260409020546001600160a01b031690565b61048e61062a565b6065546001600160a01b039081169116146104de576040805162461bcd60e51b815260206004820181905260248201526000805160206109b0833981519152604482015290519081900360640190fd5b6001600160a01b0381166105235760405162461bcd60e51b81526004018080602001828103825260268152602001806109506026913960400191505060405180910390fd5b6065546040516001600160a01b038084169216907f8be0079c531659141344cd1fd0a4f28419497f9722a3daafe3b4186f6b6457e090600090a3606580546001600160a01b0319166001600160a01b0392909216919091179055565b61058761062a565b6065546001600160a01b039081169116146105d7576040805162461bcd60e51b815260206004820181905260248201526000805160206109b0833981519152604482015290519081900360640190fd5b600081815260976020526040812060028101805482546001600160a01b0319908116845560019093018054909316909255919091556106256001600160a01b0384168263ffffffff6106d116565b505050565b3390565b303b1590565b600054610100900460ff168061064d575061064d61062e565b8061065b575060005460ff16155b6106965760405162461bcd60e51b815260040180806020018281038252602e8152602001806109d0602e913960400191505060405180910390fd5b600054610100900460ff161580156106c1576000805460ff1961ff0019909116610100171660011790555b6106c96107b6565b610447610856565b80471015610726576040805162461bcd60e51b815260206004820152601d60248201527f416464726573733a20696e73756666696369656e742062616c616e6365000000604482015290519081900360640190fd5b6040516000906001600160a01b0384169083908381818185875af1925050503d8060008114610771576040519150601f19603f3d011682016040523d82523d6000602084013e610776565b606091505b50509050806106255760405162461bcd60e51b815260040180806020018281038252603a815260200180610976603a913960400191505060405180910390fd5b600054610100900460ff16806107cf57506107cf61062e565b806107dd575060005460ff16155b6108185760405162461bcd60e51b815260040180806020018281038252602e8152602001806109d0602e913960400191505060405180910390fd5b600054610100900460ff16158015610447576000805460ff1961ff0019909116610100171660011790558015610459576000805461ff001916905550565b600054610100900460ff168061086f575061086f61062e565b8061087d575060005460ff16155b6108b85760405162461bcd60e51b815260040180806020018281038252602e8152602001806109d0602e913960400191505060405180910390fd5b600054610100900460ff161580156108e3576000805460ff1961ff0019909116610100171660011790555b60006108ed61062a565b606580546001600160a01b0319166001600160a01b038316908117909155604051919250906000907f8be0079c531659141344cd1fd0a4f28419497f9722a3daafe3b4186f6b6457e0908290a3508015610459576000805461ff00191690555056fe4f776e61626c653a206e6577206f776e657220697320746865207a65726f2061646472657373416464726573733a20756e61626c6520746f2073656e642076616c75652c20726563697069656e74206d617920686176652072657665727465644f776e61626c653a2063616c6c6572206973206e6f7420746865206f776e6572436f6e747261637420696e7374616e63652068617320616c7265616479206265656e20696e697469616c697a6564a26469706673582212205763997f24f35d5f19d9941cd9a763703838ef87d10d0b22544337a5aca037e564736f6c63430006060033496e73756666696369656e7420616d6f756e742073656e7421203a280000000009a84e259a390ab98bc6f05a43ee212d36d3396d7f0a297696a1526510f1e23b596f7520617265206e6f7420746865206f776e6572206f66207468652066756e6374696f6e21412066756e6374696f6e2077697468207468652073616d65206e616d6520616c726561647920657869737421596f7520617265206e6f74207468652064657369676e61746564206164647265737321436f6e747261637420696e7374616e63652068617320616c7265616479206265656e20696e697469616c697a65645468652066756e6374696f6e2773206465736372697074696f6e20636f756c646e2774206265206d6f646966696564203a285468652066756e6374696f6e20796f75277265206c6f6f6b696e6720666f7220646f6573206e6f7420657869737421203a27285468652066756e6374696f6e2773206465736372697074696f6e20686173206265656e207375636365737366756c6c79206d6f64696669656421a2646970667358221220cb6686b19bcf9927601d95fe195802680b009bca0e8408048ae1f558c843e90564736f6c63430006060033",
  "source": "pragma solidity >=0.4.22 <0.7.0;\r\n\r\nimport \"./EtherlessStorage.sol\";\r\nimport \"./EtherlessEscrow.sol\";\r\nimport \"@openzeppelin/contracts-ethereum-package/contracts/Initializable.sol\";\r\n\r\ncontract EtherlessSmart is Initializable {\r\n  /**\r\n  * @title main Etherless contract\r\n  * @author Roundabout team\r\n  */\r\n\r\n  address payable ownerAddress;\r\n  address serverAddress;\r\n  uint256 contractBalance;\r\n  uint256 requestId;\r\n  uint256 fprice;\r\n\r\n  EtherlessStorage private ethStorage;\r\n  EtherlessEscrow private escrow;\r\n\r\n  //events\r\n  event deployRequest(string funcname, string signature, string funchash, uint256 indexed id);\r\n  event runRequest(string funcname, string param, uint256 indexed id);\r\n  event deleteRequest(string funcname, uint256 indexed id);\r\n  event editRequest(string name, string signature, string funcHash, uint256 indexed requestId);\r\n  event resultOk(string result, uint256 indexed id);\r\n  event resultError(string result, uint256 indexed id);\r\n\r\n  modifier onlyServer(address invokedFrom) {\r\n    require(invokedFrom == serverAddress, \"You are not the designated address!\");\r\n    _;\r\n  }\r\n\r\n  //TODO: check for removal of contractBalance\r\n  /**\r\n  * @dev EtherlessSmart contract initializer function\r\n  */\r\n  function initialize (EtherlessStorage functions, address serverAddr, uint256 price) initializer public {\r\n    ownerAddress = payable(address(this));\r\n    serverAddress = serverAddr;\r\n    contractBalance = 0;\r\n    requestId = 0;\r\n    fprice = price;\r\n    ethStorage = functions;\r\n    escrow = new EtherlessEscrow();\r\n    escrow.initialize();\r\n  }\r\n\r\n  //[DEPLOY] adds a function to the list\r\n\r\n  /**\r\n  * @dev forwards the deployment request for a function, emits deployRequest event\r\n  * @param name: name of the function to deploy\r\n  * @param signature: should contain the signature of the function\r\n  * @param description: should contain the description of the function\r\n  * @param funchash: should contain the IPFS hash of the function code\r\n  */\r\n  function deployFunction(string memory name, string memory signature, string memory description, string memory funchash) public payable {\r\n    require(ethStorage.existsFunction(name) == false, \"A function with the same name already exist!\");\r\n    require(msg.value >= fprice, \"Insufficient amount sent! :(\");\r\n\r\n    getNewId();\r\n    escrow.deposit{value: fprice}(msg.sender, ownerAddress, fprice, requestId);\r\n    ethStorage.insertNewFunction(name, signature, fprice, msg.sender, description);\r\n    \r\n    deployRequest(name, signature, funchash, requestId);\r\n  }\r\n\r\n  //[RUN] runFunction -> requests execution of the function\r\n  /**\r\n  * @dev forwards the run request for a specified function, emits runRequest event\r\n  * @param funcName: name of the function to run\r\n  * @param param: parameters passed to the function\r\n  */\r\n  function runFunction(string memory funcName, string memory param) public payable {\r\n    require(ethStorage.existsFunction(funcName), \"The function you're looking for does not exist! :'(\");\r\n    uint256 funcPrice = ethStorage.getFuncPrice(funcName);\r\n    address payable funcDev = ethStorage.getFuncDev(funcName);\r\n\r\n    require(msg.value >= funcPrice, \"Insufficient amount sent! :'(\");\r\n    //contractBalance += msg.value;\r\n    getNewId();\r\n    escrow.deposit{value: funcPrice}(msg.sender, funcDev, funcPrice, requestId);\r\n    emit runRequest(funcName, param, requestId);\r\n  }\r\n\r\n  /**\r\n  * @dev forwards the deletion request for a specified function, emits deleteRequest event\r\n  * @param name: name of the function to delete\r\n  */\r\n  function deleteFunction(string memory name) public payable {\r\n    require(ethStorage.existsFunction(name) == true, \"The function you're looking for does not exist! :'(\");\r\n    require(msg.value >= fprice, \"Insufficient amount sent! :(\");\r\n    require(ethStorage.getFuncDev(name) == msg.sender, \"You are not the owner of the function!\");\r\n\r\n    getNewId();\r\n    escrow.deposit{value: fprice}(msg.sender, ownerAddress, fprice, requestId);\r\n    emit deleteRequest(name, requestId);\r\n  }\r\n\r\n  function editFunction(string memory name, string memory signature, string memory funcHash) public payable {\r\n    require(ethStorage.existsFunction(name) == true, \"The function you're looking for does not exist! :'(\");\r\n    require(msg.value >= fprice, \"Insufficient amount sent! :(\");\r\n    require(msg.sender == ethStorage.getFuncDev(name), \"You are not the owner of the function!\");\r\n\r\n    getNewId();\r\n    escrow.deposit{value: fprice}(msg.sender, ownerAddress, fprice, requestId);\r\n    emit editRequest(name, signature, funcHash, requestId);\r\n  }\r\n\r\n  function editFunctionDescr(string memory name, string memory descr) public payable {\r\n    require(ethStorage.existsFunction(name) == true, \"The function you're looking for does not exist! :'(\");\r\n    require(msg.value >= fprice, \"Insufficient amount sent! :(\");\r\n    require(msg.sender == ethStorage.getFuncDev(name), \"You are not the owner of the function!\");\r\n\r\n    getNewId();\r\n    escrow.deposit{value: fprice}(msg.sender, ownerAddress, fprice, requestId);\r\n    bool modified = ethStorage.modifyFuncDescr(name, descr);\r\n    if(modified == true)\r\n      emit resultOk(\"The function's description has been successfully modified!\", requestId);\r\n    else\r\n      emit resultOk(\"The function's description couldn't be modified :(\", requestId);\r\n  }\r\n\r\n  /**\r\n  * @dev forwards the deployment result, only callable from \r\n  *     \"Etherless\" server address, emits deployOk or \r\n  *      deployError events based on the parameter \"succesful\"\r\n  * @param message: result message string\r\n  * @param name: name of the deployment function\r\n  * @param id: id of the deployment request\r\n  * @param successful: indicates the success or failure of the respective deployment request\r\n  */\r\n  function deployResult(string memory message, string memory name, uint256 id, bool successful) public onlyServer(msg.sender) {\r\n    if(successful == true) {\r\n      escrow.withdraw(escrow.getBeneficiary(id), id);\r\n      ethStorage.insertInArray(name);\r\n      emit resultOk(message, id);\r\n    } else {\r\n      escrow.withdraw(escrow.getSender(id), id);\r\n      ethStorage.removeFunction(name);\r\n      emit resultError(message, id);\r\n    }\r\n  }\r\n\r\n  /**\r\n  * @dev forwards the run result, only callable from \r\n  *     \"Etherless\" server address, emits runOk or \r\n  *      runError events based on the parameter \"succesful\"\r\n  * @param message: result message string\r\n  * @param id: id of the run request\r\n  * @param successful: indicates the success or failure of the respective run request\r\n  */\r\n  function runResult(string memory message, uint256 id, bool successful) public onlyServer(msg.sender) {\r\n     if(successful == true) {\r\n      escrow.withdraw(escrow.getBeneficiary(id), id);\r\n      emit resultOk(message, id);\r\n    } else {\r\n      escrow.withdraw(escrow.getSender(id), id);\r\n      emit resultError(message, id);\r\n    }\r\n  }\r\n  \r\n  /**\r\n  * @dev forwards the run result, only callable from \r\n  *     \"Etherless\" server address, emits deleteOk or \r\n  *      deleteError events based on the parameter \"succesful\"\r\n  * @param message: result message string\r\n  * @param name: name of the deployment function\r\n  * @param id: id of the run request\r\n  * @param successful: indicates the success or failure of the respective run request\r\n  */\r\n  function deleteResult(string memory message, string memory name, uint256 id, bool successful) public onlyServer(msg.sender) {\r\n    if(successful == true) {\r\n      escrow.withdraw(escrow.getBeneficiary(id), id);\r\n      ethStorage.removeFunction(name);\r\n      ethStorage.removeFromArray(name);\r\n      emit resultOk(message, id);\r\n    } else {\r\n      escrow.withdraw(escrow.getSender(id), id);\r\n      emit resultError(message, id);\r\n    }\r\n  }\r\n\r\n  function editResult(string memory message, string memory name, string memory signature, uint256 id, bool successful) public onlyServer(msg.sender) {\r\n    if(successful == true) {\r\n      escrow.withdraw(escrow.getBeneficiary(id), id);\r\n      ethStorage.modifyFunction(name, signature);\r\n      emit resultOk(message, id);\r\n    } else {\r\n      escrow.withdraw(escrow.getSender(id), id);\r\n      emit resultError(message, id);\r\n    }\r\n  }\r\n\r\n  /**\r\n  * @dev returns the excecution cost for a specified function\r\n  * @param funcName: name of the function\r\n  * @return specified function's cost\r\n  */\r\n  function getCost(string memory funcName) public view returns (uint256){\r\n    return ethStorage.getFuncPrice(funcName);\r\n  }\r\n\r\n  /**\r\n  * @dev returns the full information of a single function\r\n  * @param funcName: name of the function\r\n  * @return json formatted string containing the function's info\r\n  */\r\n  function getInfo(string memory funcName) public view returns (string memory){\r\n    require(ethStorage.existsFunction(funcName), \"The function you're looking for does not exist! :'(\");\r\n    return ethStorage.getFuncInfo(funcName);\r\n  }\r\n\r\n  /**\r\n  * @dev returns a list of all the available functions\r\n  * @return json formatted string containing the function list\r\n  */\r\n  function getFuncList() public view returns (string memory){\r\n    return ethStorage.getList();\r\n  }\r\n  \r\n  /**\r\n  * @dev returns a list of all the available functions, of a specific owner\r\n  * @param dev: address of the owner to return the list of\r\n  * @return json formatted string containing the developer's function list\r\n  */\r\n  function getOwnedList(address payable dev) public view returns (string memory){\r\n    return ethStorage.getDevList(dev);\r\n  }\r\n\r\n  /**\r\n  * @dev increments the request id by 1\r\n  * @return incremented request id\r\n  */\r\n  function getNewId() private returns (uint256){\r\n    requestId = requestId+1;\r\n    return requestId;\r\n  }\r\n\r\n  /**\r\n  * @dev returns the deposited ether of a specific request id\r\n  * @param id: request id\r\n  * @return deposit of the specified request id\r\n  */\r\n  function getDeposit(uint256 id) public view returns (uint256){\r\n    return escrow.depositsOf(id);\r\n  }\r\n\r\n  /**\r\n  * @dev returns the current request id\r\n  * @return current request id\r\n  */\r\n  function getId() public view returns (uint256){\r\n    return requestId;\r\n  }\r\n\r\n  fallback() external payable {}\r\n  receive() external payable {\r\n    contractBalance = msg.value;\r\n  }\r\n}",
  "sourcePath": "C:/Users/verof/Documents/GitHub/etherless-smart/contracts/EtherlessSmart.sol",
  "compiler": {
    "name": "solc",
    "version": "0.6.6+commit.6c089d02.Emscripten.clang"
  },
  "schemaVersion": "3.0.22",
  "updatedAt": "2020-06-26T14:04:59.358Z",
  "devdoc": {
    "methods": {
      "deleteFunction(string)": {
        "details": "forwards the deletion request for a specified function, emits deleteRequest event",
        "params": {
          "name": ": name of the function to delete"
        }
      },
      "deleteResult(string,string,uint256,bool)": {
        "details": "forwards the run result, only callable from     \"Etherless\" server address, emits deleteOk or      deleteError events based on the parameter \"succesful\"",
        "params": {
          "id": ": id of the run request",
          "message": ": result message string",
          "name": ": name of the deployment function",
          "successful": ": indicates the success or failure of the respective run request"
        }
      },
      "deployFunction(string,string,string,string)": {
        "details": "forwards the deployment request for a function, emits deployRequest event",
        "params": {
          "description": ": should contain the description of the function",
          "funchash": ": should contain the IPFS hash of the function code",
          "name": ": name of the function to deploy",
          "signature": ": should contain the signature of the function"
        }
      },
      "deployResult(string,string,uint256,bool)": {
        "details": "forwards the deployment result, only callable from     \"Etherless\" server address, emits deployOk or      deployError events based on the parameter \"succesful\"",
        "params": {
          "id": ": id of the deployment request",
          "message": ": result message string",
          "name": ": name of the deployment function",
          "successful": ": indicates the success or failure of the respective deployment request"
        }
      },
      "getCost(string)": {
        "details": "returns the excecution cost for a specified function",
        "params": {
          "funcName": ": name of the function"
        },
        "returns": {
          "_0": "specified function's cost"
        }
      },
      "getDeposit(uint256)": {
        "details": "returns the deposited ether of a specific request id",
        "params": {
          "id": ": request id"
        },
        "returns": {
          "_0": "deposit of the specified request id"
        }
      },
      "getFuncList()": {
        "details": "returns a list of all the available functions",
        "returns": {
          "_0": "json formatted string containing the function list"
        }
      },
      "getId()": {
        "details": "returns the current request id",
        "returns": {
          "_0": "current request id"
        }
      },
      "getInfo(string)": {
        "details": "returns the full information of a single function",
        "params": {
          "funcName": ": name of the function"
        },
        "returns": {
          "_0": "json formatted string containing the function's info"
        }
      },
      "getOwnedList(address)": {
        "details": "returns a list of all the available functions, of a specific owner",
        "params": {
          "dev": ": address of the owner to return the list of"
        },
        "returns": {
          "_0": "json formatted string containing the developer's function list"
        }
      },
      "initialize(address,address,uint256)": {
        "details": "EtherlessSmart contract initializer function"
      },
      "runFunction(string,string)": {
        "details": "forwards the run request for a specified function, emits runRequest event",
        "params": {
          "funcName": ": name of the function to run",
          "param": ": parameters passed to the function"
        }
      },
      "runResult(string,uint256,bool)": {
        "details": "forwards the run result, only callable from     \"Etherless\" server address, emits runOk or      runError events based on the parameter \"succesful\"",
        "params": {
          "id": ": id of the run request",
          "message": ": result message string",
          "successful": ": indicates the success or failure of the respective run request"
        }
      }
    }
  },
  "userdoc": {
    "methods": {}
  }
}