{
  "contractName": "EtherlessSmart",
  "abi": [
    {
      "anonymous": false,
      "inputs": [
        {
          "indexed": false,
          "internalType": "string",
          "name": "funcname",
          "type": "string"
        },
        {
          "indexed": true,
          "internalType": "uint256",
          "name": "id",
          "type": "uint256"
        }
      ],
      "name": "deleteRequest",
      "type": "event"
    },
    {
      "anonymous": false,
      "inputs": [
        {
          "indexed": false,
          "internalType": "string",
          "name": "funcname",
          "type": "string"
        },
        {
          "indexed": false,
          "internalType": "string",
          "name": "signature",
          "type": "string"
        },
        {
          "indexed": false,
          "internalType": "string",
          "name": "funchash",
          "type": "string"
        },
        {
          "indexed": true,
          "internalType": "uint256",
          "name": "id",
          "type": "uint256"
        }
      ],
      "name": "deployRequest",
      "type": "event"
    },
    {
      "anonymous": false,
      "inputs": [
        {
          "indexed": false,
          "internalType": "string",
          "name": "result",
          "type": "string"
        },
        {
          "indexed": true,
          "internalType": "uint256",
          "name": "id",
          "type": "uint256"
        }
      ],
      "name": "resultError",
      "type": "event"
    },
    {
      "anonymous": false,
      "inputs": [
        {
          "indexed": false,
          "internalType": "string",
          "name": "result",
          "type": "string"
        },
        {
          "indexed": true,
          "internalType": "uint256",
          "name": "id",
          "type": "uint256"
        }
      ],
      "name": "resultOk",
      "type": "event"
    },
    {
      "anonymous": false,
      "inputs": [
        {
          "indexed": false,
          "internalType": "string",
          "name": "funcname",
          "type": "string"
        },
        {
          "indexed": false,
          "internalType": "string",
          "name": "param",
          "type": "string"
        },
        {
          "indexed": true,
          "internalType": "uint256",
          "name": "id",
          "type": "uint256"
        }
      ],
      "name": "runRequest",
      "type": "event"
    },
    {
      "inputs": [
        {
          "internalType": "contract EtherlessStorage",
          "name": "functions",
          "type": "address"
        },
        {
          "internalType": "address",
          "name": "serverAddr",
          "type": "address"
        },
        {
          "internalType": "uint256",
          "name": "price",
          "type": "uint256"
        }
      ],
      "name": "initialize",
      "outputs": [],
      "stateMutability": "nonpayable",
      "type": "function"
    },
    {
      "inputs": [
        {
          "internalType": "string",
          "name": "name",
          "type": "string"
        },
        {
          "internalType": "string",
          "name": "signature",
          "type": "string"
        },
        {
          "internalType": "string",
          "name": "description",
          "type": "string"
        },
        {
          "internalType": "string",
          "name": "funchash",
          "type": "string"
        }
      ],
      "name": "deployFunction",
      "outputs": [],
      "stateMutability": "payable",
      "type": "function"
    },
    {
      "inputs": [
        {
          "internalType": "string",
          "name": "funcName",
          "type": "string"
        },
        {
          "internalType": "string",
          "name": "param",
          "type": "string"
        }
      ],
      "name": "runFunction",
      "outputs": [],
      "stateMutability": "payable",
      "type": "function"
    },
    {
      "inputs": [
        {
          "internalType": "string",
          "name": "name",
          "type": "string"
        }
      ],
      "name": "deleteFunction",
      "outputs": [],
      "stateMutability": "payable",
      "type": "function"
    },
    {
      "inputs": [
        {
          "internalType": "string",
          "name": "message",
          "type": "string"
        },
        {
          "internalType": "string",
          "name": "name",
          "type": "string"
        },
        {
          "internalType": "uint256",
          "name": "id",
          "type": "uint256"
        },
        {
          "internalType": "bool",
          "name": "successful",
          "type": "bool"
        }
      ],
      "name": "deployResult",
      "outputs": [],
      "stateMutability": "nonpayable",
      "type": "function"
    },
    {
      "inputs": [
        {
          "internalType": "string",
          "name": "message",
          "type": "string"
        },
        {
          "internalType": "uint256",
          "name": "id",
          "type": "uint256"
        },
        {
          "internalType": "bool",
          "name": "successful",
          "type": "bool"
        }
      ],
      "name": "runResult",
      "outputs": [],
      "stateMutability": "nonpayable",
      "type": "function"
    },
    {
      "inputs": [
        {
          "internalType": "string",
          "name": "message",
          "type": "string"
        },
        {
          "internalType": "string",
          "name": "name",
          "type": "string"
        },
        {
          "internalType": "uint256",
          "name": "id",
          "type": "uint256"
        },
        {
          "internalType": "bool",
          "name": "successful",
          "type": "bool"
        }
      ],
      "name": "deleteResult",
      "outputs": [],
      "stateMutability": "nonpayable",
      "type": "function"
    },
    {
      "inputs": [
        {
          "internalType": "string",
          "name": "funcName",
          "type": "string"
        }
      ],
      "name": "getCost",
      "outputs": [
        {
          "internalType": "uint256",
          "name": "",
          "type": "uint256"
        }
      ],
      "stateMutability": "view",
      "type": "function"
    },
    {
      "inputs": [
        {
          "internalType": "string",
          "name": "funcName",
          "type": "string"
        }
      ],
      "name": "getInfo",
      "outputs": [
        {
          "internalType": "string",
          "name": "",
          "type": "string"
        }
      ],
      "stateMutability": "view",
      "type": "function"
    },
    {
      "inputs": [],
      "name": "getFuncList",
      "outputs": [
        {
          "internalType": "string",
          "name": "",
          "type": "string"
        }
      ],
      "stateMutability": "view",
      "type": "function"
    },
    {
      "inputs": [
        {
          "internalType": "address payable",
          "name": "dev",
          "type": "address"
        }
      ],
      "name": "getOwnedList",
      "outputs": [
        {
          "internalType": "string",
          "name": "",
          "type": "string"
        }
      ],
      "stateMutability": "view",
      "type": "function"
    },
    {
      "inputs": [
        {
          "internalType": "uint256",
          "name": "id",
          "type": "uint256"
        }
      ],
      "name": "getDeposit",
      "outputs": [
        {
          "internalType": "uint256",
          "name": "",
          "type": "uint256"
        }
      ],
      "stateMutability": "view",
      "type": "function"
    },
    {
      "inputs": [],
      "name": "getId",
      "outputs": [
        {
          "internalType": "uint256",
          "name": "",
          "type": "uint256"
        }
      ],
      "stateMutability": "view",
      "type": "function"
    }
  ],
  "bytecode": "0x608060405234801561001057600080fd5b50614ece806100206000396000f3fe6080604052600436106100c25760003560e01c80636eeca2f01161007f5780639ca3c29c116100595780639ca3c29c146108685780639f9fb96814610944578063d51e84bb14610993578063e4aec51314610c13576100c2565b80636eeca2f0146104d45780637ee005ab146106495780638372cdb51461078a576100c2565b8063086751f7146100c75780630ecbfcea146102195780631794bb3c146102a957806337b4c1ac146103245780635d1ca631146103ee5780636001c26014610419575b600080fd5b610217600480360360408110156100dd57600080fd5b81019080803590602001906401000000008111156100fa57600080fd5b82018360208201111561010c57600080fd5b8035906020019184600183028401116401000000008311171561012e57600080fd5b91908080601f016020809104026020016040519081016040528093929190818152602001838380828437600081840152601f19601f8201169050808301925050505050505091929192908035906020019064010000000081111561019157600080fd5b8201836020820111156101a357600080fd5b803590602001918460018302840111640100000000831117156101c557600080fd5b91908080601f016020809104026020016040519081016040528093929190818152602001838380828437600081840152601f19601f820116905080830192505050505050509192919290505050610d88565b005b34801561022557600080fd5b5061022e6113af565b6040518080602001828103825283818151815260200191508051906020019080838360005b8381101561026e578082015181840152602081019050610253565b50505050905090810190601f16801561029b5780820380516001836020036101000a031916815260200191505b509250505060405180910390f35b3480156102b557600080fd5b50610322600480360360608110156102cc57600080fd5b81019080803573ffffffffffffffffffffffffffffffffffffffff169060200190929190803573ffffffffffffffffffffffffffffffffffffffff1690602001909291908035906020019092919050505061155b565b005b34801561033057600080fd5b506103736004803603602081101561034757600080fd5b81019080803573ffffffffffffffffffffffffffffffffffffffff169060200190929190505050611822565b6040518080602001828103825283818151815260200191508051906020019080838360005b838110156103b3578082015181840152602081019050610398565b50505050905090810190601f1680156103e05780820380516001836020036101000a031916815260200191505b509250505060405180910390f35b3480156103fa57600080fd5b506104036119d0565b6040518082815260200191505060405180910390f35b6104d26004803603602081101561042f57600080fd5b810190808035906020019064010000000081111561044c57600080fd5b82018360208201111561045e57600080fd5b8035906020019184600183028401116401000000008311171561048057600080fd5b91908080601f016020809104026020016040519081016040528093929190818152602001838380828437600081840152601f19601f8201169050808301925050505050505091929192905050506119da565b005b3480156104e057600080fd5b50610647600480360360808110156104f757600080fd5b810190808035906020019064010000000081111561051457600080fd5b82018360208201111561052657600080fd5b8035906020019184600183028401116401000000008311171561054857600080fd5b91908080601f016020809104026020016040519081016040528093929190818152602001838380828437600081840152601f19601f820116905080830192505050505050509192919290803590602001906401000000008111156105ab57600080fd5b8201836020820111156105bd57600080fd5b803590602001918460018302840111640100000000831117156105df57600080fd5b91908080601f016020809104026020016040519081016040528093929190818152602001838380828437600081840152601f19601f82011690508083019250505050505050919291929080359060200190929190803515159060200190929190505050611d92565b005b34801561065557600080fd5b5061070f6004803603602081101561066c57600080fd5b810190808035906020019064010000000081111561068957600080fd5b82018360208201111561069b57600080fd5b803590602001918460018302840111640100000000831117156106bd57600080fd5b91908080601f016020809104026020016040519081016040528093929190818152602001838380828437600081840152601f19601f82011690508083019250505050505050919291929050505061244d565b6040518080602001828103825283818151815260200191508051906020019080838360005b8381101561074f578082015181840152602081019050610734565b50505050905090810190601f16801561077c5780820380516001836020036101000a031916815260200191505b509250505060405180910390f35b34801561079657600080fd5b50610866600480360360608110156107ad57600080fd5b81019080803590602001906401000000008111156107ca57600080fd5b8201836020820111156107dc57600080fd5b803590602001918460018302840111640100000000831117156107fe57600080fd5b91908080601f016020809104026020016040519081016040528093929190818152602001838380828437600081840152601f19601f8201169050808301925050505050505091929192908035906020019092919080351515906020019092919050505061278f565b005b34801561087457600080fd5b5061092e6004803603602081101561088b57600080fd5b81019080803590602001906401000000008111156108a857600080fd5b8201836020820111156108ba57600080fd5b803590602001918460018302840111640100000000831117156108dc57600080fd5b91908080601f016020809104026020016040519081016040528093929190818152602001838380828437600081840152601f19601f820116905080830192505050505050509192919290505050612c65565b6040518082815260200191505060405180910390f35b34801561095057600080fd5b5061097d6004803603602081101561096757600080fd5b8101908080359060200190929190505050612d81565b6040518082815260200191505060405180910390f35b610c11600480360360808110156109a957600080fd5b81019080803590602001906401000000008111156109c657600080fd5b8201836020820111156109d857600080fd5b803590602001918460018302840111640100000000831117156109fa57600080fd5b91908080601f016020809104026020016040519081016040528093929190818152602001838380828437600081840152601f19601f82011690508083019250505050505050919291929080359060200190640100000000811115610a5d57600080fd5b820183602082011115610a6f57600080fd5b80359060200191846001830284011164010000000083111715610a9157600080fd5b91908080601f016020809104026020016040519081016040528093929190818152602001838380828437600081840152601f19601f82011690508083019250505050505050919291929080359060200190640100000000811115610af457600080fd5b820183602082011115610b0657600080fd5b80359060200191846001830284011164010000000083111715610b2857600080fd5b91908080601f016020809104026020016040519081016040528093929190818152602001838380828437600081840152601f19601f82011690508083019250505050505050919291929080359060200190640100000000811115610b8b57600080fd5b820183602082011115610b9d57600080fd5b80359060200191846001830284011164010000000083111715610bbf57600080fd5b91908080601f016020809104026020016040519081016040528093929190818152602001838380828437600081840152601f19601f820116905080830192505050505050509192919290505050612e38565b005b348015610c1f57600080fd5b50610d8660048036036080811015610c3657600080fd5b8101908080359060200190640100000000811115610c5357600080fd5b820183602082011115610c6557600080fd5b80359060200191846001830284011164010000000083111715610c8757600080fd5b91908080601f016020809104026020016040519081016040528093929190818152602001838380828437600081840152601f19601f82011690508083019250505050505050919291929080359060200190640100000000811115610cea57600080fd5b820183602082011115610cfc57600080fd5b80359060200191846001830284011164010000000083111715610d1e57600080fd5b91908080601f016020809104026020016040519081016040528093929190818152602001838380828437600081840152601f19601f820116905080830192505050505050509192919290803590602001909291908035151590602001909291905050506134d7565b005b603860009054906101000a900473ffffffffffffffffffffffffffffffffffffffff1673ffffffffffffffffffffffffffffffffffffffff166384ecd685836040518263ffffffff1660e01b81526004018080602001828103825283818151815260200191508051906020019080838360005b83811015610e16578082015181840152602081019050610dfb565b50505050905090810190601f168015610e435780820380516001836020036101000a031916815260200191505b509250505060206040518083038186803b158015610e6057600080fd5b505afa158015610e74573d6000803e3d6000fd5b505050506040513d6020811015610e8a57600080fd5b8101908080519060200190929190505050610ef0576040517f08c379a0000000000000000000000000000000000000000000000000000000008152600401808060200182810382526033815260200180614e666033913960400191505060405180910390fd5b6000603860009054906101000a900473ffffffffffffffffffffffffffffffffffffffff1673ffffffffffffffffffffffffffffffffffffffff1663d2d06d62846040518263ffffffff1660e01b81526004018080602001828103825283818151815260200191508051906020019080838360005b83811015610f80578082015181840152602081019050610f65565b50505050905090810190601f168015610fad5780820380516001836020036101000a031916815260200191505b509250505060206040518083038186803b158015610fca57600080fd5b505afa158015610fde573d6000803e3d6000fd5b505050506040513d6020811015610ff457600080fd5b810190808051906020019092919050505090506000603860009054906101000a900473ffffffffffffffffffffffffffffffffffffffff1673ffffffffffffffffffffffffffffffffffffffff16631f7bcf11856040518263ffffffff1660e01b81526004018080602001828103825283818151815260200191508051906020019080838360005b8381101561109757808201518184015260208101905061107c565b50505050905090810190601f1680156110c45780820380516001836020036101000a031916815260200191505b509250505060206040518083038186803b1580156110e157600080fd5b505afa1580156110f5573d6000803e3d6000fd5b505050506040513d602081101561110b57600080fd5b8101908080519060200190929190505050905081341015611194576040517f08c379a000000000000000000000000000000000000000000000000000000000815260040180806020018281038252601d8152602001807f496e73756666696369656e7420616d6f756e742073656e7421203a272800000081525060200191505060405180910390fd5b61119c613b92565b50603960009054906101000a900473ffffffffffffffffffffffffffffffffffffffff1673ffffffffffffffffffffffffffffffffffffffff166320e8c565833384866036546040518663ffffffff1660e01b8152600401808573ffffffffffffffffffffffffffffffffffffffff1673ffffffffffffffffffffffffffffffffffffffff1681526020018473ffffffffffffffffffffffffffffffffffffffff1673ffffffffffffffffffffffffffffffffffffffff1681526020018381526020018281526020019450505050506000604051808303818588803b15801561128457600080fd5b505af1158015611298573d6000803e3d6000fd5b50505050506036547f7ef872871460aa4a20c88ad733e51a4ef38ab384f289ec5953b389964b05ac678585604051808060200180602001838103835285818151815260200191508051906020019080838360005b838110156113075780820151818401526020810190506112ec565b50505050905090810190601f1680156113345780820380516001836020036101000a031916815260200191505b50838103825284818151815260200191508051906020019080838360005b8381101561136d578082015181840152602081019050611352565b50505050905090810190601f16801561139a5780820380516001836020036101000a031916815260200191505b5094505050505060405180910390a250505050565b6060603860009054906101000a900473ffffffffffffffffffffffffffffffffffffffff1673ffffffffffffffffffffffffffffffffffffffff1663ddd2a1bf3360006040518363ffffffff1660e01b8152600401808373ffffffffffffffffffffffffffffffffffffffff1673ffffffffffffffffffffffffffffffffffffffff168152602001821515151581526020019250505060006040518083038186803b15801561145d57600080fd5b505afa158015611471573d6000803e3d6000fd5b505050506040513d6000823e3d601f19601f82011682018060405250602081101561149b57600080fd5b81019080805160405193929190846401000000008211156114bb57600080fd5b838201915060208201858111156114d157600080fd5b82518660018202830111640100000000821117156114ee57600080fd5b8083526020830192505050908051906020019080838360005b83811015611522578082015181840152602081019050611507565b50505050905090810190601f16801561154f5780820380516001836020036101000a031916815260200191505b50604052505050905090565b600060019054906101000a900460ff168061157a5750611579613ba8565b5b8061159157506000809054906101000a900460ff16155b6115e6576040517f08c379a000000000000000000000000000000000000000000000000000000000815260040180806020018281038252602e815260200180614e38602e913960400191505060405180910390fd5b60008060019054906101000a900460ff161590508015611636576001600060016101000a81548160ff02191690831515021790555060016000806101000a81548160ff0219169083151502179055505b30603360006101000a81548173ffffffffffffffffffffffffffffffffffffffff021916908373ffffffffffffffffffffffffffffffffffffffff16021790555082603460006101000a81548173ffffffffffffffffffffffffffffffffffffffff021916908373ffffffffffffffffffffffffffffffffffffffff160217905550600060358190555060006036819055508160378190555083603860006101000a81548173ffffffffffffffffffffffffffffffffffffffff021916908373ffffffffffffffffffffffffffffffffffffffff16021790555060405161171c90613bbf565b604051809103906000f080158015611738573d6000803e3d6000fd5b50603960006101000a81548173ffffffffffffffffffffffffffffffffffffffff021916908373ffffffffffffffffffffffffffffffffffffffff160217905550603960009054906101000a900473ffffffffffffffffffffffffffffffffffffffff1673ffffffffffffffffffffffffffffffffffffffff16638129fc1c6040518163ffffffff1660e01b8152600401600060405180830381600087803b1580156117e357600080fd5b505af11580156117f7573d6000803e3d6000fd5b50505050801561181c5760008060016101000a81548160ff0219169083151502179055505b50505050565b6060603860009054906101000a900473ffffffffffffffffffffffffffffffffffffffff1673ffffffffffffffffffffffffffffffffffffffff1663ddd2a1bf8360016040518363ffffffff1660e01b8152600401808373ffffffffffffffffffffffffffffffffffffffff1673ffffffffffffffffffffffffffffffffffffffff168152602001821515151581526020019250505060006040518083038186803b1580156118d057600080fd5b505afa1580156118e4573d6000803e3d6000fd5b505050506040513d6000823e3d601f19601f82011682018060405250602081101561190e57600080fd5b810190808051604051939291908464010000000082111561192e57600080fd5b8382019150602082018581111561194457600080fd5b825186600182028301116401000000008211171561196157600080fd5b8083526020830192505050908051906020019080838360005b8381101561199557808201518184015260208101905061197a565b50505050905090810190601f1680156119c25780820380516001836020036101000a031916815260200191505b506040525050509050919050565b6000603654905090565b60011515603860009054906101000a900473ffffffffffffffffffffffffffffffffffffffff1673ffffffffffffffffffffffffffffffffffffffff166384ecd685836040518263ffffffff1660e01b81526004018080602001828103825283818151815260200191508051906020019080838360005b83811015611a6c578082015181840152602081019050611a51565b50505050905090810190601f168015611a995780820380516001836020036101000a031916815260200191505b509250505060206040518083038186803b158015611ab657600080fd5b505afa158015611aca573d6000803e3d6000fd5b505050506040513d6020811015611ae057600080fd5b8101908080519060200190929190505050151514611b49576040517f08c379a0000000000000000000000000000000000000000000000000000000008152600401808060200182810382526033815260200180614e666033913960400191505060405180910390fd5b603754341015611bc1576040517f08c379a000000000000000000000000000000000000000000000000000000000815260040180806020018281038252601c8152602001807f496e73756666696369656e7420616d6f756e742073656e7421203a280000000081525060200191505060405180910390fd5b611bc9613b92565b50603960009054906101000a900473ffffffffffffffffffffffffffffffffffffffff1673ffffffffffffffffffffffffffffffffffffffff166320e8c56560375433603360009054906101000a900473ffffffffffffffffffffffffffffffffffffffff166037546036546040518663ffffffff1660e01b8152600401808573ffffffffffffffffffffffffffffffffffffffff1673ffffffffffffffffffffffffffffffffffffffff1681526020018473ffffffffffffffffffffffffffffffffffffffff1673ffffffffffffffffffffffffffffffffffffffff1681526020018381526020018281526020019450505050506000604051808303818588803b158015611cd757600080fd5b505af1158015611ceb573d6000803e3d6000fd5b50505050506036547fd7c011791b8d0a3caa94d0e33bffaa7e4b1d4790699a98bd660d5f1f9541b17b826040518080602001828103825283818151815260200191508051906020019080838360005b83811015611d55578082015181840152602081019050611d3a565b50505050905090810190601f168015611d825780820380516001836020036101000a031916815260200191505b509250505060405180910390a250565b33603460009054906101000a900473ffffffffffffffffffffffffffffffffffffffff1673ffffffffffffffffffffffffffffffffffffffff168173ffffffffffffffffffffffffffffffffffffffff1614611e39576040517f08c379a0000000000000000000000000000000000000000000000000000000008152600401808060200182810382526023815260200180614e156023913960400191505060405180910390fd5b60011515821515141561214857603960009054906101000a900473ffffffffffffffffffffffffffffffffffffffff1673ffffffffffffffffffffffffffffffffffffffff1663f3fef3a3603960009054906101000a900473ffffffffffffffffffffffffffffffffffffffff1673ffffffffffffffffffffffffffffffffffffffff1663302df083866040518263ffffffff1660e01b81526004018082815260200191505060206040518083038186803b158015611ef757600080fd5b505afa158015611f0b573d6000803e3d6000fd5b505050506040513d6020811015611f2157600080fd5b8101908080519060200190929190505050856040518363ffffffff1660e01b8152600401808373ffffffffffffffffffffffffffffffffffffffff1673ffffffffffffffffffffffffffffffffffffffff16815260200182815260200192505050600060405180830381600087803b158015611f9c57600080fd5b505af1158015611fb0573d6000803e3d6000fd5b50505050603860009054906101000a900473ffffffffffffffffffffffffffffffffffffffff1673ffffffffffffffffffffffffffffffffffffffff1663c6d3386c856040518263ffffffff1660e01b81526004018080602001828103825283818151815260200191508051906020019080838360005b83811015612042578082015181840152602081019050612027565b50505050905090810190601f16801561206f5780820380516001836020036101000a031916815260200191505b5092505050600060405180830381600087803b15801561208e57600080fd5b505af11580156120a2573d6000803e3d6000fd5b50505050827f09a84e259a390ab98bc6f05a43ee212d36d3396d7f0a297696a1526510f1e23b866040518080602001828103825283818151815260200191508051906020019080838360005b838110156121095780820151818401526020810190506120ee565b50505050905090810190601f1680156121365780820380516001836020036101000a031916815260200191505b509250505060405180910390a2612446565b603960009054906101000a900473ffffffffffffffffffffffffffffffffffffffff1673ffffffffffffffffffffffffffffffffffffffff1663f3fef3a3603960009054906101000a900473ffffffffffffffffffffffffffffffffffffffff1673ffffffffffffffffffffffffffffffffffffffff1663b971302a866040518263ffffffff1660e01b81526004018082815260200191505060206040518083038186803b1580156121f957600080fd5b505afa15801561220d573d6000803e3d6000fd5b505050506040513d602081101561222357600080fd5b8101908080519060200190929190505050856040518363ffffffff1660e01b8152600401808373ffffffffffffffffffffffffffffffffffffffff1673ffffffffffffffffffffffffffffffffffffffff16815260200182815260200192505050600060405180830381600087803b15801561229e57600080fd5b505af11580156122b2573d6000803e3d6000fd5b50505050603860009054906101000a900473ffffffffffffffffffffffffffffffffffffffff1673ffffffffffffffffffffffffffffffffffffffff1663c3e0d45f856040518263ffffffff1660e01b81526004018080602001828103825283818151815260200191508051906020019080838360005b83811015612344578082015181840152602081019050612329565b50505050905090810190601f1680156123715780820380516001836020036101000a031916815260200191505b5092505050600060405180830381600087803b15801561239057600080fd5b505af11580156123a4573d6000803e3d6000fd5b50505050827ff718f8e5c5d13a664f95e1a560273c7049005814ca180f1a92783bdcca7053c2866040518080602001828103825283818151815260200191508051906020019080838360005b8381101561240b5780820151818401526020810190506123f0565b50505050905090810190601f1680156124385780820380516001836020036101000a031916815260200191505b509250505060405180910390a25b5050505050565b6060603860009054906101000a900473ffffffffffffffffffffffffffffffffffffffff1673ffffffffffffffffffffffffffffffffffffffff166384ecd685836040518263ffffffff1660e01b81526004018080602001828103825283818151815260200191508051906020019080838360005b838110156124dd5780820151818401526020810190506124c2565b50505050905090810190601f16801561250a5780820380516001836020036101000a031916815260200191505b509250505060206040518083038186803b15801561252757600080fd5b505afa15801561253b573d6000803e3d6000fd5b505050506040513d602081101561255157600080fd5b81019080805190602001909291905050506125b7576040517f08c379a0000000000000000000000000000000000000000000000000000000008152600401808060200182810382526033815260200180614e666033913960400191505060405180910390fd5b603860009054906101000a900473ffffffffffffffffffffffffffffffffffffffff1673ffffffffffffffffffffffffffffffffffffffff166383329ed2836040518263ffffffff1660e01b81526004018080602001828103825283818151815260200191508051906020019080838360005b8381101561264557808201518184015260208101905061262a565b50505050905090810190601f1680156126725780820380516001836020036101000a031916815260200191505b509250505060006040518083038186803b15801561268f57600080fd5b505afa1580156126a3573d6000803e3d6000fd5b505050506040513d6000823e3d601f19601f8201168201806040525060208110156126cd57600080fd5b81019080805160405193929190846401000000008211156126ed57600080fd5b8382019150602082018581111561270357600080fd5b825186600182028301116401000000008211171561272057600080fd5b8083526020830192505050908051906020019080838360005b83811015612754578082015181840152602081019050612739565b50505050905090810190601f1680156127815780820380516001836020036101000a031916815260200191505b506040525050509050919050565b33603460009054906101000a900473ffffffffffffffffffffffffffffffffffffffff1673ffffffffffffffffffffffffffffffffffffffff168173ffffffffffffffffffffffffffffffffffffffff1614612836576040517f08c379a0000000000000000000000000000000000000000000000000000000008152600401808060200182810382526023815260200180614e156023913960400191505060405180910390fd5b600115158215151415612a5357603960009054906101000a900473ffffffffffffffffffffffffffffffffffffffff1673ffffffffffffffffffffffffffffffffffffffff1663f3fef3a3603960009054906101000a900473ffffffffffffffffffffffffffffffffffffffff1673ffffffffffffffffffffffffffffffffffffffff1663302df083866040518263ffffffff1660e01b81526004018082815260200191505060206040518083038186803b1580156128f457600080fd5b505afa158015612908573d6000803e3d6000fd5b505050506040513d602081101561291e57600080fd5b8101908080519060200190929190505050856040518363ffffffff1660e01b8152600401808373ffffffffffffffffffffffffffffffffffffffff1673ffffffffffffffffffffffffffffffffffffffff16815260200182815260200192505050600060405180830381600087803b15801561299957600080fd5b505af11580156129ad573d6000803e3d6000fd5b50505050827f09a84e259a390ab98bc6f05a43ee212d36d3396d7f0a297696a1526510f1e23b856040518080602001828103825283818151815260200191508051906020019080838360005b83811015612a145780820151818401526020810190506129f9565b50505050905090810190601f168015612a415780820380516001836020036101000a031916815260200191505b509250505060405180910390a2612c5f565b603960009054906101000a900473ffffffffffffffffffffffffffffffffffffffff1673ffffffffffffffffffffffffffffffffffffffff1663f3fef3a3603960009054906101000a900473ffffffffffffffffffffffffffffffffffffffff1673ffffffffffffffffffffffffffffffffffffffff1663b971302a866040518263ffffffff1660e01b81526004018082815260200191505060206040518083038186803b158015612b0457600080fd5b505afa158015612b18573d6000803e3d6000fd5b505050506040513d6020811015612b2e57600080fd5b8101908080519060200190929190505050856040518363ffffffff1660e01b8152600401808373ffffffffffffffffffffffffffffffffffffffff1673ffffffffffffffffffffffffffffffffffffffff16815260200182815260200192505050600060405180830381600087803b158015612ba957600080fd5b505af1158015612bbd573d6000803e3d6000fd5b50505050827ff718f8e5c5d13a664f95e1a560273c7049005814ca180f1a92783bdcca7053c2856040518080602001828103825283818151815260200191508051906020019080838360005b83811015612c24578082015181840152602081019050612c09565b50505050905090810190601f168015612c515780820380516001836020036101000a031916815260200191505b509250505060405180910390a25b50505050565b6000603860009054906101000a900473ffffffffffffffffffffffffffffffffffffffff1673ffffffffffffffffffffffffffffffffffffffff1663d2d06d62836040518263ffffffff1660e01b81526004018080602001828103825283818151815260200191508051906020019080838360005b83811015612cf5578082015181840152602081019050612cda565b50505050905090810190601f168015612d225780820380516001836020036101000a031916815260200191505b509250505060206040518083038186803b158015612d3f57600080fd5b505afa158015612d53573d6000803e3d6000fd5b505050506040513d6020811015612d6957600080fd5b81019080805190602001909291905050509050919050565b6000603960009054906101000a900473ffffffffffffffffffffffffffffffffffffffff1673ffffffffffffffffffffffffffffffffffffffff16637cf850f2836040518263ffffffff1660e01b81526004018082815260200191505060206040518083038186803b158015612df657600080fd5b505afa158015612e0a573d6000803e3d6000fd5b505050506040513d6020811015612e2057600080fd5b81019080805190602001909291905050509050919050565b60001515603860009054906101000a900473ffffffffffffffffffffffffffffffffffffffff1673ffffffffffffffffffffffffffffffffffffffff166384ecd685866040518263ffffffff1660e01b81526004018080602001828103825283818151815260200191508051906020019080838360005b83811015612eca578082015181840152602081019050612eaf565b50505050905090810190601f168015612ef75780820380516001836020036101000a031916815260200191505b509250505060206040518083038186803b158015612f1457600080fd5b505afa158015612f28573d6000803e3d6000fd5b505050506040513d6020811015612f3e57600080fd5b8101908080519060200190929190505050151514612fa7576040517f08c379a000000000000000000000000000000000000000000000000000000000815260040180806020018281038252602c815260200180614de9602c913960400191505060405180910390fd5b60375434101561301f576040517f08c379a000000000000000000000000000000000000000000000000000000000815260040180806020018281038252601c8152602001807f496e73756666696369656e7420616d6f756e742073656e7421203a280000000081525060200191505060405180910390fd5b613027613b92565b50603960009054906101000a900473ffffffffffffffffffffffffffffffffffffffff1673ffffffffffffffffffffffffffffffffffffffff166320e8c56560375433603360009054906101000a900473ffffffffffffffffffffffffffffffffffffffff166037546036546040518663ffffffff1660e01b8152600401808573ffffffffffffffffffffffffffffffffffffffff1673ffffffffffffffffffffffffffffffffffffffff1681526020018473ffffffffffffffffffffffffffffffffffffffff1673ffffffffffffffffffffffffffffffffffffffff1681526020018381526020018281526020019450505050506000604051808303818588803b15801561313557600080fd5b505af1158015613149573d6000803e3d6000fd5b5050505050603860009054906101000a900473ffffffffffffffffffffffffffffffffffffffff1673ffffffffffffffffffffffffffffffffffffffff166339120339858560375433876040518663ffffffff1660e01b81526004018080602001806020018681526020018573ffffffffffffffffffffffffffffffffffffffff1673ffffffffffffffffffffffffffffffffffffffff16815260200180602001848103845289818151815260200191508051906020019080838360005b83811015613222578082015181840152602081019050613207565b50505050905090810190601f16801561324f5780820380516001836020036101000a031916815260200191505b50848103835288818151815260200191508051906020019080838360005b8381101561328857808201518184015260208101905061326d565b50505050905090810190601f1680156132b55780820380516001836020036101000a031916815260200191505b50848103825285818151815260200191508051906020019080838360005b838110156132ee5780820151818401526020810190506132d3565b50505050905090810190601f16801561331b5780820380516001836020036101000a031916815260200191505b5098505050505050505050600060405180830381600087803b15801561334057600080fd5b505af1158015613354573d6000803e3d6000fd5b505050506036547f6df90bf94bf567e79d5e4d28871c347a62303575e6fad1bcfeb1721ef45909dc85858460405180806020018060200180602001848103845287818151815260200191508051906020019080838360005b838110156133c75780820151818401526020810190506133ac565b50505050905090810190601f1680156133f45780820380516001836020036101000a031916815260200191505b50848103835286818151815260200191508051906020019080838360005b8381101561342d578082015181840152602081019050613412565b50505050905090810190601f16801561345a5780820380516001836020036101000a031916815260200191505b50848103825285818151815260200191508051906020019080838360005b83811015613493578082015181840152602081019050613478565b50505050905090810190601f1680156134c05780820380516001836020036101000a031916815260200191505b50965050505050505060405180910390a250505050565b33603460009054906101000a900473ffffffffffffffffffffffffffffffffffffffff1673ffffffffffffffffffffffffffffffffffffffff168173ffffffffffffffffffffffffffffffffffffffff161461357e576040517f08c379a0000000000000000000000000000000000000000000000000000000008152600401808060200182810382526023815260200180614e156023913960400191505060405180910390fd5b60011515821515141561397f57603960009054906101000a900473ffffffffffffffffffffffffffffffffffffffff1673ffffffffffffffffffffffffffffffffffffffff1663f3fef3a3603960009054906101000a900473ffffffffffffffffffffffffffffffffffffffff1673ffffffffffffffffffffffffffffffffffffffff1663302df083866040518263ffffffff1660e01b81526004018082815260200191505060206040518083038186803b15801561363c57600080fd5b505afa158015613650573d6000803e3d6000fd5b505050506040513d602081101561366657600080fd5b8101908080519060200190929190505050856040518363ffffffff1660e01b8152600401808373ffffffffffffffffffffffffffffffffffffffff1673ffffffffffffffffffffffffffffffffffffffff16815260200182815260200192505050600060405180830381600087803b1580156136e157600080fd5b505af11580156136f5573d6000803e3d6000fd5b50505050603860009054906101000a900473ffffffffffffffffffffffffffffffffffffffff1673ffffffffffffffffffffffffffffffffffffffff1663c3e0d45f856040518263ffffffff1660e01b81526004018080602001828103825283818151815260200191508051906020019080838360005b8381101561378757808201518184015260208101905061376c565b50505050905090810190601f1680156137b45780820380516001836020036101000a031916815260200191505b5092505050600060405180830381600087803b1580156137d357600080fd5b505af11580156137e7573d6000803e3d6000fd5b50505050603860009054906101000a900473ffffffffffffffffffffffffffffffffffffffff1673ffffffffffffffffffffffffffffffffffffffff166326468153856040518263ffffffff1660e01b81526004018080602001828103825283818151815260200191508051906020019080838360005b8381101561387957808201518184015260208101905061385e565b50505050905090810190601f1680156138a65780820380516001836020036101000a031916815260200191505b5092505050600060405180830381600087803b1580156138c557600080fd5b505af11580156138d9573d6000803e3d6000fd5b50505050827f09a84e259a390ab98bc6f05a43ee212d36d3396d7f0a297696a1526510f1e23b866040518080602001828103825283818151815260200191508051906020019080838360005b83811015613940578082015181840152602081019050613925565b50505050905090810190601f16801561396d5780820380516001836020036101000a031916815260200191505b509250505060405180910390a2613b8b565b603960009054906101000a900473ffffffffffffffffffffffffffffffffffffffff1673ffffffffffffffffffffffffffffffffffffffff1663f3fef3a3603960009054906101000a900473ffffffffffffffffffffffffffffffffffffffff1673ffffffffffffffffffffffffffffffffffffffff1663b971302a866040518263ffffffff1660e01b81526004018082815260200191505060206040518083038186803b158015613a3057600080fd5b505afa158015613a44573d6000803e3d6000fd5b505050506040513d6020811015613a5a57600080fd5b8101908080519060200190929190505050856040518363ffffffff1660e01b8152600401808373ffffffffffffffffffffffffffffffffffffffff1673ffffffffffffffffffffffffffffffffffffffff16815260200182815260200192505050600060405180830381600087803b158015613ad557600080fd5b505af1158015613ae9573d6000803e3d6000fd5b50505050827ff718f8e5c5d13a664f95e1a560273c7049005814ca180f1a92783bdcca7053c2866040518080602001828103825283818151815260200191508051906020019080838360005b83811015613b50578082015181840152602081019050613b35565b50505050905090810190601f168015613b7d5780820380516001836020036101000a031916815260200191505b509250505060405180910390a25b5050505050565b6000600160365401603681905550603654905090565b6000803090506000813b9050600081149250505090565b61121c80613bcd8339019056fe608060405234801561001057600080fd5b506111fc806100206000396000f3fe6080604052600436106100865760003560e01c80638129fc1c116100595780638129fc1c146101e45780638da5cb5b146101fb578063b971302a14610252578063f2fde38b146102cd578063f3fef3a31461031e57610086565b806320e8c5651461008b578063302df08314610103578063715018a61461017e5780637cf850f214610195575b600080fd5b610101600480360360808110156100a157600080fd5b81019080803573ffffffffffffffffffffffffffffffffffffffff169060200190929190803573ffffffffffffffffffffffffffffffffffffffff1690602001909291908035906020019092919080359060200190929190505050610379565b005b34801561010f57600080fd5b5061013c6004803603602081101561012657600080fd5b810190808035906020019092919050505061053e565b604051808273ffffffffffffffffffffffffffffffffffffffff1673ffffffffffffffffffffffffffffffffffffffff16815260200191505060405180910390f35b34801561018a57600080fd5b5061019361057e565b005b3480156101a157600080fd5b506101ce600480360360208110156101b857600080fd5b8101908080359060200190929190505050610709565b6040518082815260200191505060405180910390f35b3480156101f057600080fd5b506101f9610729565b005b34801561020757600080fd5b50610210610830565b604051808273ffffffffffffffffffffffffffffffffffffffff1673ffffffffffffffffffffffffffffffffffffffff16815260200191505060405180910390f35b34801561025e57600080fd5b5061028b6004803603602081101561027557600080fd5b810190808035906020019092919050505061085a565b604051808273ffffffffffffffffffffffffffffffffffffffff1673ffffffffffffffffffffffffffffffffffffffff16815260200191505060405180910390f35b3480156102d957600080fd5b5061031c600480360360208110156102f057600080fd5b81019080803573ffffffffffffffffffffffffffffffffffffffff16906020019092919050505061089a565b005b34801561032a57600080fd5b506103776004803603604081101561034157600080fd5b81019080803573ffffffffffffffffffffffffffffffffffffffff16906020019092919080359060200190929190505050610aaa565b005b610381610c29565b73ffffffffffffffffffffffffffffffffffffffff16606560009054906101000a900473ffffffffffffffffffffffffffffffffffffffff1673ffffffffffffffffffffffffffffffffffffffff1614610443576040517f08c379a00000000000000000000000000000000000000000000000000000000081526004018080602001828103825260208152602001807f4f776e61626c653a2063616c6c6572206973206e6f7420746865206f776e657281525060200191505060405180910390fd5b60405180606001604052808573ffffffffffffffffffffffffffffffffffffffff1681526020018473ffffffffffffffffffffffffffffffffffffffff168152602001838152506097600083815260200190815260200160002060008201518160000160006101000a81548173ffffffffffffffffffffffffffffffffffffffff021916908373ffffffffffffffffffffffffffffffffffffffff16021790555060208201518160010160006101000a81548173ffffffffffffffffffffffffffffffffffffffff021916908373ffffffffffffffffffffffffffffffffffffffff1602179055506040820151816002015590505050505050565b60006097600083815260200190815260200160002060010160009054906101000a900473ffffffffffffffffffffffffffffffffffffffff169050919050565b610586610c29565b73ffffffffffffffffffffffffffffffffffffffff16606560009054906101000a900473ffffffffffffffffffffffffffffffffffffffff1673ffffffffffffffffffffffffffffffffffffffff1614610648576040517f08c379a00000000000000000000000000000000000000000000000000000000081526004018080602001828103825260208152602001807f4f776e61626c653a2063616c6c6572206973206e6f7420746865206f776e657281525060200191505060405180910390fd5b600073ffffffffffffffffffffffffffffffffffffffff16606560009054906101000a900473ffffffffffffffffffffffffffffffffffffffff1673ffffffffffffffffffffffffffffffffffffffff167f8be0079c531659141344cd1fd0a4f28419497f9722a3daafe3b4186f6b6457e060405160405180910390a36000606560006101000a81548173ffffffffffffffffffffffffffffffffffffffff021916908373ffffffffffffffffffffffffffffffffffffffff160217905550565b600060976000838152602001908152602001600020600201549050919050565b600060019054906101000a900460ff16806107485750610747610c31565b5b8061075f57506000809054906101000a900460ff16155b6107b4576040517f08c379a000000000000000000000000000000000000000000000000000000000815260040180806020018281038252602e815260200180611199602e913960400191505060405180910390fd5b60008060019054906101000a900460ff161590508015610804576001600060016101000a81548160ff02191690831515021790555060016000806101000a81548160ff0219169083151502179055505b61080c610c48565b801561082d5760008060016101000a81548160ff0219169083151502179055505b50565b6000606560009054906101000a900473ffffffffffffffffffffffffffffffffffffffff16905090565b60006097600083815260200190815260200160002060000160009054906101000a900473ffffffffffffffffffffffffffffffffffffffff169050919050565b6108a2610c29565b73ffffffffffffffffffffffffffffffffffffffff16606560009054906101000a900473ffffffffffffffffffffffffffffffffffffffff1673ffffffffffffffffffffffffffffffffffffffff1614610964576040517f08c379a00000000000000000000000000000000000000000000000000000000081526004018080602001828103825260208152602001807f4f776e61626c653a2063616c6c6572206973206e6f7420746865206f776e657281525060200191505060405180910390fd5b600073ffffffffffffffffffffffffffffffffffffffff168173ffffffffffffffffffffffffffffffffffffffff1614156109ea576040517f08c379a00000000000000000000000000000000000000000000000000000000081526004018080602001828103825260268152602001806111396026913960400191505060405180910390fd5b8073ffffffffffffffffffffffffffffffffffffffff16606560009054906101000a900473ffffffffffffffffffffffffffffffffffffffff1673ffffffffffffffffffffffffffffffffffffffff167f8be0079c531659141344cd1fd0a4f28419497f9722a3daafe3b4186f6b6457e060405160405180910390a380606560006101000a81548173ffffffffffffffffffffffffffffffffffffffff021916908373ffffffffffffffffffffffffffffffffffffffff16021790555050565b610ab2610c29565b73ffffffffffffffffffffffffffffffffffffffff16606560009054906101000a900473ffffffffffffffffffffffffffffffffffffffff1673ffffffffffffffffffffffffffffffffffffffff1614610b74576040517f08c379a00000000000000000000000000000000000000000000000000000000081526004018080602001828103825260208152602001807f4f776e61626c653a2063616c6c6572206973206e6f7420746865206f776e657281525060200191505060405180910390fd5b60006097600083815260200190815260200160002060020154905060976000838152602001908152602001600020600080820160006101000a81549073ffffffffffffffffffffffffffffffffffffffff02191690556001820160006101000a81549073ffffffffffffffffffffffffffffffffffffffff021916905560028201600090555050610c24818473ffffffffffffffffffffffffffffffffffffffff16610d5790919063ffffffff16565b505050565b600033905090565b6000803090506000813b9050600081149250505090565b600060019054906101000a900460ff1680610c675750610c66610c31565b5b80610c7e57506000809054906101000a900460ff16155b610cd3576040517f08c379a000000000000000000000000000000000000000000000000000000000815260040180806020018281038252602e815260200180611199602e913960400191505060405180910390fd5b60008060019054906101000a900460ff161590508015610d23576001600060016101000a81548160ff02191690831515021790555060016000806101000a81548160ff0219169083151502179055505b610d2b610e91565b610d33610f90565b8015610d545760008060016101000a81548160ff0219169083151502179055505b50565b80471015610dcd576040517f08c379a000000000000000000000000000000000000000000000000000000000815260040180806020018281038252601d8152602001807f416464726573733a20696e73756666696369656e742062616c616e636500000081525060200191505060405180910390fd5b60008273ffffffffffffffffffffffffffffffffffffffff168260405180600001905060006040518083038185875af1925050503d8060008114610e2d576040519150601f19603f3d011682016040523d82523d6000602084013e610e32565b606091505b5050905080610e8c576040517f08c379a000000000000000000000000000000000000000000000000000000000815260040180806020018281038252603a81526020018061115f603a913960400191505060405180910390fd5b505050565b600060019054906101000a900460ff1680610eb05750610eaf610c31565b5b80610ec757506000809054906101000a900460ff16155b610f1c576040517f08c379a000000000000000000000000000000000000000000000000000000000815260040180806020018281038252602e815260200180611199602e913960400191505060405180910390fd5b60008060019054906101000a900460ff161590508015610f6c576001600060016101000a81548160ff02191690831515021790555060016000806101000a81548160ff0219169083151502179055505b8015610f8d5760008060016101000a81548160ff0219169083151502179055505b50565b600060019054906101000a900460ff1680610faf5750610fae610c31565b5b80610fc657506000809054906101000a900460ff16155b61101b576040517f08c379a000000000000000000000000000000000000000000000000000000000815260040180806020018281038252602e815260200180611199602e913960400191505060405180910390fd5b60008060019054906101000a900460ff16159050801561106b576001600060016101000a81548160ff02191690831515021790555060016000806101000a81548160ff0219169083151502179055505b6000611075610c29565b905080606560006101000a81548173ffffffffffffffffffffffffffffffffffffffff021916908373ffffffffffffffffffffffffffffffffffffffff1602179055508073ffffffffffffffffffffffffffffffffffffffff16600073ffffffffffffffffffffffffffffffffffffffff167f8be0079c531659141344cd1fd0a4f28419497f9722a3daafe3b4186f6b6457e060405160405180910390a35080156111355760008060016101000a81548160ff0219169083151502179055505b5056fe4f776e61626c653a206e6577206f776e657220697320746865207a65726f2061646472657373416464726573733a20756e61626c6520746f2073656e642076616c75652c20726563697069656e74206d61792068617665207265766572746564436f6e747261637420696e7374616e63652068617320616c7265616479206265656e20696e697469616c697a6564a2646970667358221220c772f9a05d23f716d8e17b63f1f3e94d761be16c26447732b54bb86febd23bf164736f6c63430006060033412066756e6374696f6e2077697468207468652073616d65206e616d6520616c726561647920657869737421596f7520617265206e6f74207468652064657369676e61746564206164647265737321436f6e747261637420696e7374616e63652068617320616c7265616479206265656e20696e697469616c697a65645468652066756e6374696f6e20796f75277265206c6f6f6b696e6720666f7220646f6573206e6f7420657869737421203a2728a2646970667358221220115a74fc05d15651a5006fe942d4215f3671ba9b49294e74bdc15f4b4ab52fdc64736f6c63430006060033",
  "source": "pragma solidity >=0.4.22 <0.7.0;\r\n\r\nimport \"./EtherlessStorage.sol\";\r\nimport \"./EtherlessEscrow.sol\";\r\nimport \"@openzeppelin/contracts-ethereum-package/contracts/Initializable.sol\";\r\n\r\ncontract EtherlessSmart is Initializable {\r\n\r\n  address payable ownerAddress;\r\n  address serverAddress;\r\n  uint256 contractBalance;\r\n  uint256 requestId;\r\n  uint256 fprice;\r\n\r\n  EtherlessStorage private ethStorage;\r\n  EtherlessEscrow private escrow;\r\n\r\n  //events\r\n  event deployRequest(string funcname, string signature, string funchash, uint256 indexed id);\r\n  event runRequest(string funcname, string param, uint256 indexed id);\r\n  event deleteRequest(string funcname, uint256 indexed id);\r\n  event resultOk(string result, uint256 indexed id);\r\n  event resultError(string result, uint256 indexed id);\r\n\r\n  modifier onlyServer(address invokedFrom) {\r\n    require(invokedFrom == serverAddress, \"You are not the designated address!\");\r\n    _;\r\n  }\r\n\r\n  //TODO: check for removal of contractBalance\r\n  function initialize (EtherlessStorage functions, address serverAddr, uint256 price) initializer public {\r\n    ownerAddress = payable(address(this));\r\n    serverAddress = serverAddr;\r\n    contractBalance = 0;\r\n    requestId = 0;\r\n    fprice = price;\r\n    ethStorage = functions;\r\n    escrow = new EtherlessEscrow();\r\n    escrow.initialize();\r\n  }\r\n\r\n  //TODO: finish function deploy\r\n  //[DEPLOY] adds a function to the list\r\n  function deployFunction(string memory name, string memory signature, string memory description, string memory funchash) public payable {\r\n    require(ethStorage.existsFunction(name) == false, \"A function with the same name already exist!\");\r\n    require(msg.value >= fprice, \"Insufficient amount sent! :(\");\r\n\r\n    getNewId();\r\n    escrow.deposit{value: fprice}(msg.sender, ownerAddress, fprice, requestId);\r\n    ethStorage.insertNewFunction(name, signature, fprice, msg.sender, description);\r\n    \r\n    deployRequest(name, signature, funchash, requestId);\r\n  }\r\n\r\n  //[RUN] runFunction -> requests execution of the function\r\n  function runFunction(string memory funcName, string memory param) public payable {\r\n    require(ethStorage.existsFunction(funcName), \"The function you're looking for does not exist! :'(\");\r\n    uint256 funcPrice = ethStorage.getFuncPrice(funcName);\r\n    address payable funcDev = ethStorage.getFuncDev(funcName);\r\n\r\n    require(msg.value >= funcPrice, \"Insufficient amount sent! :'(\");\r\n    //contractBalance += msg.value;\r\n    getNewId();\r\n    escrow.deposit{value: funcPrice}(msg.sender, funcDev, funcPrice, requestId);\r\n    emit runRequest(funcName, param, requestId);\r\n  }\r\n\r\n  function deleteFunction(string memory name) public payable {\r\n    require(ethStorage.existsFunction(name) == true, \"The function you're looking for does not exist! :'(\");\r\n    require(msg.value >= fprice, \"Insufficient amount sent! :(\");\r\n\r\n    getNewId();\r\n    escrow.deposit{value: fprice}(msg.sender, ownerAddress, fprice, requestId);\r\n    emit deleteRequest(name, requestId);\r\n  }\r\n\r\n  function deployResult(string memory message, string memory name, uint256 id, bool successful) public onlyServer(msg.sender) {\r\n    if(successful == true) {\r\n      escrow.withdraw(escrow.getBeneficiary(id), id);\r\n      ethStorage.insertInArray(name);\r\n      emit resultOk(message, id);\r\n    } else {\r\n      escrow.withdraw(escrow.getSender(id), id);\r\n      ethStorage.removeFunction(name);\r\n      emit resultError(message, id);\r\n    }\r\n  }\r\n\r\n  function runResult(string memory message, uint256 id, bool successful) public onlyServer(msg.sender) {\r\n     if(successful == true) {\r\n      escrow.withdraw(escrow.getBeneficiary(id), id);\r\n      emit resultOk(message, id);\r\n    } else {\r\n      escrow.withdraw(escrow.getSender(id), id);\r\n      emit resultError(message, id);\r\n    }\r\n  }\r\n\r\n  function deleteResult(string memory message, string memory name, uint256 id, bool successful) public onlyServer(msg.sender) {\r\n    if(successful == true) {\r\n      escrow.withdraw(escrow.getBeneficiary(id), id);\r\n      ethStorage.removeFunction(name);\r\n      ethStorage.removeFromArray(name);\r\n      emit resultOk(message, id);\r\n    } else {\r\n      escrow.withdraw(escrow.getSender(id), id);\r\n      emit resultError(message, id);\r\n    }\r\n  }\r\n\r\n  //returns the price of a single function\r\n  function getCost(string memory funcName) public view returns (uint256){\r\n    return ethStorage.getFuncPrice(funcName);\r\n  }\r\n\r\n  //[INFO] returns the information of a single function\r\n  function getInfo(string memory funcName) public view returns (string memory){\r\n    require(ethStorage.existsFunction(funcName), \"The function you're looking for does not exist! :'(\");\r\n    return ethStorage.getFuncInfo(funcName);\r\n  }\r\n\r\n  //[LIST] returns a list of all the available functions\r\n  function getFuncList() public view returns (string memory){\r\n    return ethStorage.getList(msg.sender, false);\r\n  }\r\n  //[LIST] returns a list of all the available functions\r\n  function getOwnedList(address payable dev) public view returns (string memory){\r\n    return ethStorage.getList(dev, true);\r\n  }\r\n\r\n  //TODO: test if id creation is fixed\r\n  //getNewId -> increments requestId\r\n  function getNewId() private returns (uint256){\r\n    requestId = requestId+1;\r\n    return requestId;\r\n  }\r\n\r\n  function getDeposit(uint256 id) public view returns (uint256){\r\n    return escrow.depositsOf(id);\r\n  }\r\n\r\n  function getId() public view returns (uint256){\r\n    return requestId;\r\n  }\r\n}",
  "sourcePath": "C:/Users/verof/Documents/GitHub/etherless-smart/contracts/EtherlessSmart.sol",
  "compiler": {
    "name": "solc",
    "version": "0.6.6+commit.6c089d02.Emscripten.clang"
  },
  "schemaVersion": "3.0.22",
  "updatedAt": "2020-06-09T12:41:41.131Z",
  "devdoc": {
    "methods": {}
  },
  "userdoc": {
    "methods": {}
  }
}